{
  "address": "0xa8715CCf4a708D26F137223FCEfB32924D3aE956",
  "abi": [
    {
      "inputs": [
        {
          "internalType": "contract ISuperfluid",
          "name": "host",
          "type": "address"
        },
        {
          "internalType": "contract ISuperToken",
          "name": "_acceptedToken",
          "type": "address"
        }
      ],
      "stateMutability": "nonpayable",
      "type": "constructor"
    },
    {
      "inputs": [
        {
          "internalType": "contract ISuperToken",
          "name": "",
          "type": "address"
        },
        {
          "internalType": "address",
          "name": "",
          "type": "address"
        },
        {
          "internalType": "bytes32",
          "name": "",
          "type": "bytes32"
        },
        {
          "internalType": "bytes",
          "name": "",
          "type": "bytes"
        },
        {
          "internalType": "bytes",
          "name": "",
          "type": "bytes"
        },
        {
          "internalType": "bytes",
          "name": "",
          "type": "bytes"
        }
      ],
      "name": "afterAgreementCreated",
      "outputs": [
        {
          "internalType": "bytes",
          "name": "",
          "type": "bytes"
        }
      ],
      "stateMutability": "nonpayable",
      "type": "function"
    },
    {
      "inputs": [
        {
          "internalType": "contract ISuperToken",
          "name": "",
          "type": "address"
        },
        {
          "internalType": "address",
          "name": "",
          "type": "address"
        },
        {
          "internalType": "bytes32",
          "name": "",
          "type": "bytes32"
        },
        {
          "internalType": "bytes",
          "name": "",
          "type": "bytes"
        },
        {
          "internalType": "bytes",
          "name": "",
          "type": "bytes"
        },
        {
          "internalType": "bytes",
          "name": "",
          "type": "bytes"
        }
      ],
      "name": "afterAgreementTerminated",
      "outputs": [
        {
          "internalType": "bytes",
          "name": "",
          "type": "bytes"
        }
      ],
      "stateMutability": "nonpayable",
      "type": "function"
    },
    {
      "inputs": [
        {
          "internalType": "contract ISuperToken",
          "name": "",
          "type": "address"
        },
        {
          "internalType": "address",
          "name": "",
          "type": "address"
        },
        {
          "internalType": "bytes32",
          "name": "",
          "type": "bytes32"
        },
        {
          "internalType": "bytes",
          "name": "",
          "type": "bytes"
        },
        {
          "internalType": "bytes",
          "name": "",
          "type": "bytes"
        },
        {
          "internalType": "bytes",
          "name": "",
          "type": "bytes"
        }
      ],
      "name": "afterAgreementUpdated",
      "outputs": [
        {
          "internalType": "bytes",
          "name": "",
          "type": "bytes"
        }
      ],
      "stateMutability": "nonpayable",
      "type": "function"
    },
    {
      "inputs": [
        {
          "internalType": "contract ISuperToken",
          "name": "",
          "type": "address"
        },
        {
          "internalType": "address",
          "name": "",
          "type": "address"
        },
        {
          "internalType": "bytes32",
          "name": "",
          "type": "bytes32"
        },
        {
          "internalType": "bytes",
          "name": "",
          "type": "bytes"
        },
        {
          "internalType": "bytes",
          "name": "",
          "type": "bytes"
        }
      ],
      "name": "beforeAgreementCreated",
      "outputs": [
        {
          "internalType": "bytes",
          "name": "",
          "type": "bytes"
        }
      ],
      "stateMutability": "view",
      "type": "function"
    },
    {
      "inputs": [
        {
          "internalType": "contract ISuperToken",
          "name": "",
          "type": "address"
        },
        {
          "internalType": "address",
          "name": "",
          "type": "address"
        },
        {
          "internalType": "bytes32",
          "name": "",
          "type": "bytes32"
        },
        {
          "internalType": "bytes",
          "name": "",
          "type": "bytes"
        },
        {
          "internalType": "bytes",
          "name": "",
          "type": "bytes"
        }
      ],
      "name": "beforeAgreementTerminated",
      "outputs": [
        {
          "internalType": "bytes",
          "name": "",
          "type": "bytes"
        }
      ],
      "stateMutability": "view",
      "type": "function"
    },
    {
      "inputs": [
        {
          "internalType": "contract ISuperToken",
          "name": "",
          "type": "address"
        },
        {
          "internalType": "address",
          "name": "",
          "type": "address"
        },
        {
          "internalType": "bytes32",
          "name": "",
          "type": "bytes32"
        },
        {
          "internalType": "bytes",
          "name": "",
          "type": "bytes"
        },
        {
          "internalType": "bytes",
          "name": "",
          "type": "bytes"
        }
      ],
      "name": "beforeAgreementUpdated",
      "outputs": [
        {
          "internalType": "bytes",
          "name": "",
          "type": "bytes"
        }
      ],
      "stateMutability": "view",
      "type": "function"
    },
    {
      "inputs": [],
      "name": "cfaV1Lib",
      "outputs": [
        {
          "internalType": "contract ISuperfluid",
          "name": "host",
          "type": "address"
        },
        {
          "internalType": "contract IConstantFlowAgreementV1",
          "name": "cfa",
          "type": "address"
        }
      ],
      "stateMutability": "view",
      "type": "function"
    },
    {
      "inputs": [],
      "name": "countBaby",
      "outputs": [
        {
          "internalType": "uint256",
          "name": "",
          "type": "uint256"
        }
      ],
      "stateMutability": "view",
      "type": "function"
    },
    {
      "inputs": [
        {
          "internalType": "uint256",
          "name": "tokenId",
          "type": "uint256"
        },
        {
          "internalType": "int96",
          "name": "flowRate",
          "type": "int96"
        },
        {
          "internalType": "address",
          "name": "receiver",
          "type": "address"
        }
      ],
      "name": "editNFT",
      "outputs": [],
      "stateMutability": "nonpayable",
      "type": "function"
    },
    {
      "inputs": [
        {
          "internalType": "uint256",
          "name": "",
          "type": "uint256"
        }
      ],
      "name": "flowRates",
      "outputs": [
        {
          "internalType": "int96",
          "name": "",
          "type": "int96"
        }
      ],
      "stateMutability": "view",
      "type": "function"
    },
    {
      "inputs": [
        {
          "internalType": "address",
          "name": "receiver",
          "type": "address"
        },
        {
          "internalType": "int96",
          "name": "flowRate",
          "type": "int96"
        },
        {
          "internalType": "uint256[]",
          "name": "tokenIds",
          "type": "uint256[]"
        }
      ],
      "name": "issueNFT",
      "outputs": [],
      "stateMutability": "nonpayable",
      "type": "function"
    },
    {
      "inputs": [
        {
          "internalType": "uint256",
          "name": "count",
          "type": "uint256"
        }
      ],
      "name": "testItBaby",
      "outputs": [],
      "stateMutability": "nonpayable",
      "type": "function"
    },
    {
      "inputs": [
        {
          "internalType": "address",
          "name": "oldReceiver",
          "type": "address"
        },
        {
          "internalType": "address",
          "name": "newReceiver",
          "type": "address"
        },
        {
          "internalType": "uint256",
          "name": "tokenId",
          "type": "uint256"
        }
      ],
      "name": "updateHolder",
      "outputs": [],
      "stateMutability": "nonpayable",
      "type": "function"
    }
  ],
  "transactionHash": "0x3f086d2382a894f281f6ff30b39dc630fe568ccddc0efc88e17479bdece614a7",
  "args": [
    "0x74b57883f8ce9F2BD330286E884CfD8BB24AC4ED",
    "0x04d4f73e9DE52a8fEC544087a66BBbA660A35957"
  ],
  "numDeployments": 3,
  "solcInputHash": "9d2bf4a69806b73dab69f8027b6d921b",
  "bytecode": "0x60a060405260006003553480156200001657600080fd5b50604051620025be380380620025be83398181016040528101906200003c91906200032c565b600073ffffffffffffffffffffffffffffffffffffffff168273ffffffffffffffffffffffffffffffffffffffff16036200007c576200007b62000373565b5b600073ffffffffffffffffffffffffffffffffffffffff168173ffffffffffffffffffffffffffffffffffffffff1603620000bc57620000bb62000373565b5b8073ffffffffffffffffffffffffffffffffffffffff1660808173ffffffffffffffffffffffffffffffffffffffff168152505060405180604001604052808373ffffffffffffffffffffffffffffffffffffffff1681526020018373ffffffffffffffffffffffffffffffffffffffff1663b6d200de7fa9214cc96615e0085d3bb077758db69497dc2dce3b2b1e97bc93c3d18d83efd36040518263ffffffff1660e01b8152600401620001729190620003bd565b602060405180830381865afa15801562000190573d6000803e3d6000fd5b505050506040513d601f19601f82011682018060405250810190620001b691906200041f565b73ffffffffffffffffffffffffffffffffffffffff168152506000808201518160000160006101000a81548173ffffffffffffffffffffffffffffffffffffffff021916908373ffffffffffffffffffffffffffffffffffffffff16021790555060208201518160010160006101000a81548173ffffffffffffffffffffffffffffffffffffffff021916908373ffffffffffffffffffffffffffffffffffffffff160217905550905050505062000451565b600080fd5b600073ffffffffffffffffffffffffffffffffffffffff82169050919050565b60006200029b826200026e565b9050919050565b6000620002af826200028e565b9050919050565b620002c181620002a2565b8114620002cd57600080fd5b50565b600081519050620002e181620002b6565b92915050565b6000620002f4826200028e565b9050919050565b6200030681620002e7565b81146200031257600080fd5b50565b6000815190506200032681620002fb565b92915050565b6000806040838503121562000346576200034562000269565b5b60006200035685828601620002d0565b9250506020620003698582860162000315565b9150509250929050565b7f4e487b7100000000000000000000000000000000000000000000000000000000600052600160045260246000fd5b6000819050919050565b620003b781620003a2565b82525050565b6000602082019050620003d46000830184620003ac565b92915050565b6000620003e7826200028e565b9050919050565b620003f981620003da565b81146200040557600080fd5b50565b6000815190506200041981620003ee565b92915050565b60006020828403121562000438576200043762000269565b5b6000620004488482850162000408565b91505092915050565b60805161212e62000490600039600081816107dd01528181610876015281816108c00152818161097e01528181610a140152610a51015261212e6000f3fe608060405234801561001057600080fd5b50600436106100cf5760003560e01c80635f9e7d771161008c578063884d1f4011610066578063884d1f4014610237578063cb54685014610267578063d86ed3e514610285578063e8dd6d04146102b5576100cf565b80635f9e7d77146101bb5780637141ca4a146101eb57806379bcb8df14610207576100cf565b8063230dbd29146100d457806330d9c915146101045780633fa66190146101345780634ab847711461015057806353c11f991461016c57806355586a311461019c575b600080fd5b6100ee60048036038101906100e9919061122e565b6102d1565b6040516100fb91906113b6565b60405180910390f35b61011e600480360381019061011991906113d8565b61030e565b60405161012b91906113b6565b60405180910390f35b61014e60048036038101906101499190611523565b61034b565b005b61016a600480360381019061016591906115cd565b610397565b005b6101866004803603810190610181919061122e565b6103f0565b60405161019391906113b6565b60405180910390f35b6101a461042d565b6040516101b29291906116a0565b60405180910390f35b6101d560048036038101906101d091906113d8565b61047f565b6040516101e291906113b6565b60405180910390f35b610205600480360381019061020091906116c9565b6104bc565b005b610221600480360381019061021c919061171c565b6105bd565b60405161022e9190611758565b60405180910390f35b610251600480360381019061024c91906113d8565b6105dd565b60405161025e91906113b6565b60405180910390f35b61026f61061a565b60405161027c9190611782565b60405180910390f35b61029f600480360381019061029a919061122e565b610620565b6040516102ac91906113b6565b60405180910390f35b6102cf60048036038101906102ca919061171c565b61065d565b005b60606040517f08c379a000000000000000000000000000000000000000000000000000000000815260040161030590611820565b60405180910390fd5b60606040517f08c379a0000000000000000000000000000000000000000000000000000000008152600401610342906118b2565b60405180910390fd5b60005b828290508110156103905761037d8585858585818110610371576103706118d2565b5b90506020020135610667565b808061038890611930565b91505061034e565b5050505050565b6103c1836002600084815260200190815260200160002060009054906101000a9004600b0b610765565b6103eb826002600084815260200190815260200160002060009054906101000a9004600b0b610905565b505050565b60606040517f08c379a0000000000000000000000000000000000000000000000000000000008152600401610424906119ea565b60405180910390fd5b60008060000160009054906101000a900473ffffffffffffffffffffffffffffffffffffffff16908060010160009054906101000a900473ffffffffffffffffffffffffffffffffffffffff16905082565b60606040517f08c379a00000000000000000000000000000000000000000000000000000000081526004016104b390611a7c565b60405180910390fd5b600082600b0b1215610503576040517f08c379a00000000000000000000000000000000000000000000000000000000081526004016104fa90611ae8565b60405180910390fd5b600082600b0b0361053d57610538816002600086815260200190815260200160002060009054906101000a9004600b0b610765565b610573565b610572816002600086815260200190815260200160002060009054906101000a9004600b0b8461056d9190611b08565b610905565b5b816002600085815260200190815260200160002060006101000a8154816bffffffffffffffffffffffff0219169083600b0b6bffffffffffffffffffffffff160217905550505050565b60026020528060005260406000206000915054906101000a9004600b0b81565b60606040517f08c379a000000000000000000000000000000000000000000000000000000000815260040161061190611bfa565b60405180910390fd5b60035481565b60606040517f08c379a000000000000000000000000000000000000000000000000000000000815260040161065490611c8c565b60405180910390fd5b8060038190555050565b3073ffffffffffffffffffffffffffffffffffffffff168373ffffffffffffffffffffffffffffffffffffffff16036106d5576040517f08c379a00000000000000000000000000000000000000000000000000000000081526004016106cc90611cf8565b60405180910390fd5b600082600b0b1361071b576040517f08c379a000000000000000000000000000000000000000000000000000000000815260040161071290611ae8565b60405180910390fd5b816002600083815260200190815260200160002060006101000a8154816bffffffffffffffffffffffff0219169083600b0b6bffffffffffffffffffffffff160217905550505050565b3073ffffffffffffffffffffffffffffffffffffffff168273ffffffffffffffffffffffffffffffffffffffff1603156109015760008060010160009054906101000a900473ffffffffffffffffffffffffffffffffffffffff1673ffffffffffffffffffffffffffffffffffffffff1663e6a1e8887f000000000000000000000000000000000000000000000000000000000000000030866040518463ffffffff1660e01b815260040161081c93929190611d48565b608060405180830381865afa158015610839573d6000803e3d6000fd5b505050506040513d601f19601f8201168201806040525081019061085d9190611da9565b505091505081600b0b81600b0b036108ac576108a730847f00000000000000000000000000000000000000000000000000000000000000006000610a95909392919063ffffffff16565b6108ff565b81600b0b81600b0b13156108fe576108fd837f000000000000000000000000000000000000000000000000000000000000000084846108eb9190611b08565b6000610af5909392919063ffffffff16565b5b5b505b5050565b600073ffffffffffffffffffffffffffffffffffffffff168273ffffffffffffffffffffffffffffffffffffffff160315610a915760008060010160009054906101000a900473ffffffffffffffffffffffffffffffffffffffff1673ffffffffffffffffffffffffffffffffffffffff1663e6a1e8887f000000000000000000000000000000000000000000000000000000000000000030866040518463ffffffff1660e01b81526004016109bd93929190611d48565b608060405180830381865afa1580156109da573d6000803e3d6000fd5b505050506040513d601f19601f820116820180604052508101906109fe9190611da9565b5050915050600081600b0b03610a4b57610a46837f0000000000000000000000000000000000000000000000000000000000000000846000610b55909392919063ffffffff16565b610a8f565b610a8e837f00000000000000000000000000000000000000000000000000000000000000008484610a7c9190611e10565b6000610af5909392919063ffffffff16565b5b505b5050565b610aef84848484600067ffffffffffffffff811115610ab757610ab6611e90565b5b6040519080825280601f01601f191660200182016040528015610ae95781602001600182028036833780820191505090505b50610bb5565b50505050565b610b4f84848484600067ffffffffffffffff811115610b1757610b16611e90565b5b6040519080825280601f01601f191660200182016040528015610b495781602001600182028036833780820191505090505b50610d6f565b50505050565b610baf84848484600067ffffffffffffffff811115610b7757610b76611e90565b5b6040519080825280601f01601f191660200182016040528015610ba95781602001600182028036833780820191505090505b50610f29565b50505050565b8460000160009054906101000a900473ffffffffffffffffffffffffffffffffffffffff1673ffffffffffffffffffffffffffffffffffffffff166339255d5b8660010160009054906101000a900473ffffffffffffffffffffffffffffffffffffffff168760010160009054906101000a900473ffffffffffffffffffffffffffffffffffffffff1673ffffffffffffffffffffffffffffffffffffffff1663b4b333c6868989600067ffffffffffffffff811115610c7857610c77611e90565b5b6040519080825280601f01601f191660200182016040528015610caa5781602001600182028036833780820191505090505b50604051602401610cbe9493929190611ee0565b604051602081830303815290604052915060e01b6020820180517bffffffffffffffffffffffffffffffffffffffffffffffffffffffff8381831617835250505050846040518463ffffffff1660e01b8152600401610d1f93929190611f2c565b6000604051808303816000875af1158015610d3e573d6000803e3d6000fd5b505050506040513d6000823e3d601f19601f82011682018060405250810190610d679190612063565b505050505050565b8460000160009054906101000a900473ffffffffffffffffffffffffffffffffffffffff1673ffffffffffffffffffffffffffffffffffffffff166339255d5b8660010160009054906101000a900473ffffffffffffffffffffffffffffffffffffffff168760010160009054906101000a900473ffffffffffffffffffffffffffffffffffffffff1673ffffffffffffffffffffffffffffffffffffffff166350209a62878988600067ffffffffffffffff811115610e3257610e31611e90565b5b6040519080825280601f01601f191660200182016040528015610e645781602001600182028036833780820191505090505b50604051602401610e7894939291906120ac565b604051602081830303815290604052915060e01b6020820180517bffffffffffffffffffffffffffffffffffffffffffffffffffffffff8381831617835250505050846040518463ffffffff1660e01b8152600401610ed993929190611f2c565b6000604051808303816000875af1158015610ef8573d6000803e3d6000fd5b505050506040513d6000823e3d601f19601f82011682018060405250810190610f219190612063565b505050505050565b8460000160009054906101000a900473ffffffffffffffffffffffffffffffffffffffff1673ffffffffffffffffffffffffffffffffffffffff166339255d5b8660010160009054906101000a900473ffffffffffffffffffffffffffffffffffffffff168760010160009054906101000a900473ffffffffffffffffffffffffffffffffffffffff1673ffffffffffffffffffffffffffffffffffffffff166362fc305e878988600067ffffffffffffffff811115610fec57610feb611e90565b5b6040519080825280601f01601f19166020018201604052801561101e5781602001600182028036833780820191505090505b5060405160240161103294939291906120ac565b604051602081830303815290604052915060e01b6020820180517bffffffffffffffffffffffffffffffffffffffffffffffffffffffff8381831617835250505050846040518463ffffffff1660e01b815260040161109393929190611f2c565b6000604051808303816000875af11580156110b2573d6000803e3d6000fd5b505050506040513d6000823e3d601f19601f820116820180604052508101906110db9190612063565b505050505050565b6000604051905090565b600080fd5b600080fd5b600073ffffffffffffffffffffffffffffffffffffffff82169050919050565b6000611122826110f7565b9050919050565b600061113482611117565b9050919050565b61114481611129565b811461114f57600080fd5b50565b6000813590506111618161113b565b92915050565b61117081611117565b811461117b57600080fd5b50565b60008135905061118d81611167565b92915050565b6000819050919050565b6111a681611193565b81146111b157600080fd5b50565b6000813590506111c38161119d565b92915050565b600080fd5b600080fd5b600080fd5b60008083601f8401126111ee576111ed6111c9565b5b8235905067ffffffffffffffff81111561120b5761120a6111ce565b5b602083019150836001820283011115611227576112266111d3565b5b9250929050565b600080600080600080600080600060c08a8c0312156112505761124f6110ed565b5b600061125e8c828d01611152565b995050602061126f8c828d0161117e565b98505060406112808c828d016111b4565b97505060608a013567ffffffffffffffff8111156112a1576112a06110f2565b5b6112ad8c828d016111d8565b965096505060808a013567ffffffffffffffff8111156112d0576112cf6110f2565b5b6112dc8c828d016111d8565b945094505060a08a013567ffffffffffffffff8111156112ff576112fe6110f2565b5b61130b8c828d016111d8565b92509250509295985092959850929598565b600081519050919050565b600082825260208201905092915050565b60005b8381101561135757808201518184015260208101905061133c565b83811115611366576000848401525b50505050565b6000601f19601f8301169050919050565b60006113888261131d565b6113928185611328565b93506113a2818560208601611339565b6113ab8161136c565b840191505092915050565b600060208201905081810360008301526113d0818461137d565b905092915050565b600080600080600080600060a0888a0312156113f7576113f66110ed565b5b60006114058a828b01611152565b97505060206114168a828b0161117e565b96505060406114278a828b016111b4565b955050606088013567ffffffffffffffff811115611448576114476110f2565b5b6114548a828b016111d8565b9450945050608088013567ffffffffffffffff811115611477576114766110f2565b5b6114838a828b016111d8565b925092505092959891949750929550565b600081600b0b9050919050565b6114aa81611494565b81146114b557600080fd5b50565b6000813590506114c7816114a1565b92915050565b60008083601f8401126114e3576114e26111c9565b5b8235905067ffffffffffffffff811115611500576114ff6111ce565b5b60208301915083602082028301111561151c5761151b6111d3565b5b9250929050565b6000806000806060858703121561153d5761153c6110ed565b5b600061154b8782880161117e565b945050602061155c878288016114b8565b935050604085013567ffffffffffffffff81111561157d5761157c6110f2565b5b611589878288016114cd565b925092505092959194509250565b6000819050919050565b6115aa81611597565b81146115b557600080fd5b50565b6000813590506115c7816115a1565b92915050565b6000806000606084860312156115e6576115e56110ed565b5b60006115f48682870161117e565b93505060206116058682870161117e565b9250506040611616868287016115b8565b9150509250925092565b6000819050919050565b600061164561164061163b846110f7565b611620565b6110f7565b9050919050565b60006116578261162a565b9050919050565b60006116698261164c565b9050919050565b6116798161165e565b82525050565b600061168a8261164c565b9050919050565b61169a8161167f565b82525050565b60006040820190506116b56000830185611670565b6116c26020830184611691565b9392505050565b6000806000606084860312156116e2576116e16110ed565b5b60006116f0868287016115b8565b9350506020611701868287016114b8565b92505060406117128682870161117e565b9150509250925092565b600060208284031215611732576117316110ed565b5b6000611740848285016115b8565b91505092915050565b61175281611494565b82525050565b600060208201905061176d6000830184611749565b92915050565b61177c81611597565b82525050565b60006020820190506117976000830184611773565b92915050565b600082825260208201905092915050565b7f556e737570706f727465642063616c6c6261636b202d2041667465722041677260008201527f65656d656e742055706461746564000000000000000000000000000000000000602082015250565b600061180a602e8361179d565b9150611815826117ae565b604082019050919050565b60006020820190508181036000830152611839816117fd565b9050919050565b7f556e737570706f727465642063616c6c6261636b202d204265666f726520416760008201527f7265656d656e7420437265617465640000000000000000000000000000000000602082015250565b600061189c602f8361179d565b91506118a782611840565b604082019050919050565b600060208201905081810360008301526118cb8161188f565b9050919050565b7f4e487b7100000000000000000000000000000000000000000000000000000000600052603260045260246000fd5b7f4e487b7100000000000000000000000000000000000000000000000000000000600052601160045260246000fd5b600061193b82611597565b91507fffffffffffffffffffffffffffffffffffffffffffffffffffffffffffffffff820361196d5761196c611901565b5b600182019050919050565b7f556e737570706f727465642063616c6c6261636b202d2041667465722041677260008201527f65656d656e74205465726d696e61746564000000000000000000000000000000602082015250565b60006119d460318361179d565b91506119df82611978565b604082019050919050565b60006020820190508181036000830152611a03816119c7565b9050919050565b7f556e737570706f727465642063616c6c6261636b202d20204265666f7265204160008201527f677265656d656e74205465726d696e6174656400000000000000000000000000602082015250565b6000611a6660338361179d565b9150611a7182611a0a565b604082019050919050565b60006020820190508181036000830152611a9581611a59565b9050919050565b7f666c6f7752617465206d75737420626520706f73697469766521000000000000600082015250565b6000611ad2601a8361179d565b9150611add82611a9c565b602082019050919050565b60006020820190508181036000830152611b0181611ac5565b9050919050565b6000611b1382611494565b9150611b1e83611494565b9250827fffffffffffffffffffffffffffffffffffffffff80000000000000000000000001821260008412151615611b5957611b58611901565b5b826b7fffffffffffffffffffffff018213600084121615611b7d57611b7c611901565b5b828203905092915050565b7f556e737570706f727465642063616c6c6261636b202d204265666f726520416760008201527f7265656d656e7420757064617465640000000000000000000000000000000000602082015250565b6000611be4602f8361179d565b9150611bef82611b88565b604082019050919050565b60006020820190508181036000830152611c1381611bd7565b9050919050565b7f556e737570706f727465642063616c6c6261636b202d2041667465722041677260008201527f65656d656e742043726561746564000000000000000000000000000000000000602082015250565b6000611c76602e8361179d565b9150611c8182611c1a565b604082019050919050565b60006020820190508181036000830152611ca581611c69565b9050919050565b7f497373756520746f2061206e6577206164647265737300000000000000000000600082015250565b6000611ce260168361179d565b9150611ced82611cac565b602082019050919050565b60006020820190508181036000830152611d1181611cd5565b9050919050565b6000611d238261164c565b9050919050565b611d3381611d18565b82525050565b611d4281611117565b82525050565b6000606082019050611d5d6000830186611d2a565b611d6a6020830185611d39565b611d776040830184611d39565b949350505050565b600081519050611d8e816115a1565b92915050565b600081519050611da3816114a1565b92915050565b60008060008060808587031215611dc357611dc26110ed565b5b6000611dd187828801611d7f565b9450506020611de287828801611d94565b9350506040611df387828801611d7f565b9250506060611e0487828801611d7f565b91505092959194509250565b6000611e1b82611494565b9150611e2683611494565b9250816b7fffffffffffffffffffffff03831360008312151615611e4d57611e4c611901565b5b817fffffffffffffffffffffffffffffffffffffffff800000000000000000000000038312600083121615611e8557611e84611901565b5b828201905092915050565b7f4e487b7100000000000000000000000000000000000000000000000000000000600052604160045260246000fd5b6000611eca8261164c565b9050919050565b611eda81611ebf565b82525050565b6000608082019050611ef56000830187611ed1565b611f026020830186611d39565b611f0f6040830185611d39565b8181036060830152611f21818461137d565b905095945050505050565b6000606082019050611f416000830186611691565b8181036020830152611f53818561137d565b90508181036040830152611f67818461137d565b9050949350505050565b600080fd5b611f7f8261136c565b810181811067ffffffffffffffff82111715611f9e57611f9d611e90565b5b80604052505050565b6000611fb16110e3565b9050611fbd8282611f76565b919050565b600067ffffffffffffffff821115611fdd57611fdc611e90565b5b611fe68261136c565b9050602081019050919050565b600061200661200184611fc2565b611fa7565b90508281526020810184848401111561202257612021611f71565b5b61202d848285611339565b509392505050565b600082601f83011261204a576120496111c9565b5b815161205a848260208601611ff3565b91505092915050565b600060208284031215612079576120786110ed565b5b600082015167ffffffffffffffff811115612097576120966110f2565b5b6120a384828501612035565b91505092915050565b60006080820190506120c16000830187611ed1565b6120ce6020830186611d39565b6120db6040830185611749565b81810360608301526120ed818461137d565b90509594505050505056fea264697066735822122055fb0ad4498b1141abc7803e6e0f497aee057e841afdcd3c5091bad582e0762064736f6c634300080e0033",
  "devdoc": {
    "kind": "dev",
    "methods": {},
    "stateVariables": {
      "acceptedToken": {
        "details": "Super token that may be streamed to this contract"
      }
    },
    "version": 1
  },
  "userdoc": {
    "kind": "user",
    "methods": {},
    "version": 1
  },
  "storageLayout": {
    "storage": [
      {
        "astId": 4152,
        "contract": "contracts/Cashflow.sol:Cashflow",
        "label": "cfaV1Lib",
        "offset": 0,
        "slot": "0",
        "type": "t_struct(InitData)255_storage"
      },
      {
        "astId": 4160,
        "contract": "contracts/Cashflow.sol:Cashflow",
        "label": "flowRates",
        "offset": 0,
        "slot": "2",
        "type": "t_mapping(t_uint256,t_int96)"
      },
      {
        "astId": 4454,
        "contract": "contracts/Cashflow.sol:Cashflow",
        "label": "countBaby",
        "offset": 0,
        "slot": "3",
        "type": "t_uint256"
      }
    ],
    "types": {
      "t_contract(IConstantFlowAgreementV1)1938": {
        "encoding": "inplace",
        "label": "contract IConstantFlowAgreementV1",
        "numberOfBytes": "20"
      },
      "t_contract(ISuperfluid)3668": {
        "encoding": "inplace",
        "label": "contract ISuperfluid",
        "numberOfBytes": "20"
      },
      "t_int96": {
        "encoding": "inplace",
        "label": "int96",
        "numberOfBytes": "12"
      },
      "t_mapping(t_uint256,t_int96)": {
        "encoding": "mapping",
        "key": "t_uint256",
        "label": "mapping(uint256 => int96)",
        "numberOfBytes": "32",
        "value": "t_int96"
      },
      "t_struct(InitData)255_storage": {
        "encoding": "inplace",
        "label": "struct CFAv1Library.InitData",
        "members": [
          {
            "astId": 251,
            "contract": "contracts/Cashflow.sol:Cashflow",
            "label": "host",
            "offset": 0,
            "slot": "0",
            "type": "t_contract(ISuperfluid)3668"
          },
          {
            "astId": 254,
            "contract": "contracts/Cashflow.sol:Cashflow",
            "label": "cfa",
            "offset": 0,
            "slot": "1",
            "type": "t_contract(IConstantFlowAgreementV1)1938"
          }
        ],
        "numberOfBytes": "64"
      },
      "t_uint256": {
        "encoding": "inplace",
        "label": "uint256",
        "numberOfBytes": "32"
      }
    }
  }
}