{
  "address": "0xd12c238CEA47DcC7E956B14ee1eAc528f11d2B88",
  "abi": [
    {
      "inputs": [
        {
          "internalType": "string",
          "name": "_name",
          "type": "string"
        },
        {
          "internalType": "string",
          "name": "_symbol",
          "type": "string"
        },
        {
          "internalType": "address",
          "name": "_optimisticContractAddress",
          "type": "address"
        },
        {
          "internalType": "address",
          "name": "_cashflowContract",
          "type": "address"
        },
        {
          "internalType": "int96",
          "name": "_rate",
          "type": "int96"
        }
      ],
      "stateMutability": "nonpayable",
      "type": "constructor"
    },
    {
      "anonymous": false,
      "inputs": [
        {
          "indexed": true,
          "internalType": "address",
          "name": "owner",
          "type": "address"
        },
        {
          "indexed": true,
          "internalType": "address",
          "name": "approved",
          "type": "address"
        },
        {
          "indexed": true,
          "internalType": "uint256",
          "name": "tokenId",
          "type": "uint256"
        }
      ],
      "name": "Approval",
      "type": "event"
    },
    {
      "anonymous": false,
      "inputs": [
        {
          "indexed": true,
          "internalType": "address",
          "name": "owner",
          "type": "address"
        },
        {
          "indexed": true,
          "internalType": "address",
          "name": "operator",
          "type": "address"
        },
        {
          "indexed": false,
          "internalType": "bool",
          "name": "approved",
          "type": "bool"
        }
      ],
      "name": "ApprovalForAll",
      "type": "event"
    },
    {
      "anonymous": false,
      "inputs": [
        {
          "indexed": true,
          "internalType": "address",
          "name": "from",
          "type": "address"
        },
        {
          "indexed": true,
          "internalType": "address",
          "name": "to",
          "type": "address"
        },
        {
          "indexed": true,
          "internalType": "uint256",
          "name": "tokenId",
          "type": "uint256"
        }
      ],
      "name": "Transfer",
      "type": "event"
    },
    {
      "inputs": [],
      "name": "MAX_MINT",
      "outputs": [
        {
          "internalType": "uint256",
          "name": "",
          "type": "uint256"
        }
      ],
      "stateMutability": "view",
      "type": "function"
    },
    {
      "inputs": [
        {
          "internalType": "address",
          "name": "to",
          "type": "address"
        },
        {
          "internalType": "uint256",
          "name": "tokenId",
          "type": "uint256"
        }
      ],
      "name": "approve",
      "outputs": [],
      "stateMutability": "nonpayable",
      "type": "function"
    },
    {
      "inputs": [
        {
          "internalType": "address",
          "name": "owner",
          "type": "address"
        }
      ],
      "name": "balanceOf",
      "outputs": [
        {
          "internalType": "uint256",
          "name": "",
          "type": "uint256"
        }
      ],
      "stateMutability": "view",
      "type": "function"
    },
    {
      "inputs": [],
      "name": "cashflowContract",
      "outputs": [
        {
          "internalType": "address",
          "name": "",
          "type": "address"
        }
      ],
      "stateMutability": "view",
      "type": "function"
    },
    {
      "inputs": [
        {
          "internalType": "uint256",
          "name": "tokenId",
          "type": "uint256"
        }
      ],
      "name": "getApproved",
      "outputs": [
        {
          "internalType": "address",
          "name": "",
          "type": "address"
        }
      ],
      "stateMutability": "view",
      "type": "function"
    },
    {
      "inputs": [
        {
          "internalType": "address",
          "name": "owner",
          "type": "address"
        },
        {
          "internalType": "address",
          "name": "operator",
          "type": "address"
        }
      ],
      "name": "isApprovedForAll",
      "outputs": [
        {
          "internalType": "bool",
          "name": "",
          "type": "bool"
        }
      ],
      "stateMutability": "view",
      "type": "function"
    },
    {
      "inputs": [],
      "name": "mintCount",
      "outputs": [
        {
          "internalType": "uint256",
          "name": "",
          "type": "uint256"
        }
      ],
      "stateMutability": "view",
      "type": "function"
    },
    {
      "inputs": [
        {
          "internalType": "address",
          "name": "subscriber",
          "type": "address"
        },
        {
          "internalType": "uint256",
          "name": "quantity",
          "type": "uint256"
        }
      ],
      "name": "mintNft",
      "outputs": [],
      "stateMutability": "nonpayable",
      "type": "function"
    },
    {
      "inputs": [],
      "name": "name",
      "outputs": [
        {
          "internalType": "string",
          "name": "",
          "type": "string"
        }
      ],
      "stateMutability": "view",
      "type": "function"
    },
    {
      "inputs": [
        {
          "internalType": "uint256",
          "name": "tokenId",
          "type": "uint256"
        }
      ],
      "name": "ownerOf",
      "outputs": [
        {
          "internalType": "address",
          "name": "",
          "type": "address"
        }
      ],
      "stateMutability": "view",
      "type": "function"
    },
    {
      "inputs": [],
      "name": "rate",
      "outputs": [
        {
          "internalType": "int96",
          "name": "",
          "type": "int96"
        }
      ],
      "stateMutability": "view",
      "type": "function"
    },
    {
      "inputs": [
        {
          "internalType": "address",
          "name": "from",
          "type": "address"
        },
        {
          "internalType": "address",
          "name": "to",
          "type": "address"
        },
        {
          "internalType": "uint256",
          "name": "tokenId",
          "type": "uint256"
        }
      ],
      "name": "safeTransferFrom",
      "outputs": [],
      "stateMutability": "nonpayable",
      "type": "function"
    },
    {
      "inputs": [
        {
          "internalType": "address",
          "name": "from",
          "type": "address"
        },
        {
          "internalType": "address",
          "name": "to",
          "type": "address"
        },
        {
          "internalType": "uint256",
          "name": "tokenId",
          "type": "uint256"
        },
        {
          "internalType": "bytes",
          "name": "data",
          "type": "bytes"
        }
      ],
      "name": "safeTransferFrom",
      "outputs": [],
      "stateMutability": "nonpayable",
      "type": "function"
    },
    {
      "inputs": [
        {
          "internalType": "address",
          "name": "operator",
          "type": "address"
        },
        {
          "internalType": "bool",
          "name": "approved",
          "type": "bool"
        }
      ],
      "name": "setApprovalForAll",
      "outputs": [],
      "stateMutability": "nonpayable",
      "type": "function"
    },
    {
      "inputs": [
        {
          "internalType": "bytes4",
          "name": "interfaceId",
          "type": "bytes4"
        }
      ],
      "name": "supportsInterface",
      "outputs": [
        {
          "internalType": "bool",
          "name": "",
          "type": "bool"
        }
      ],
      "stateMutability": "view",
      "type": "function"
    },
    {
      "inputs": [],
      "name": "symbol",
      "outputs": [
        {
          "internalType": "string",
          "name": "",
          "type": "string"
        }
      ],
      "stateMutability": "view",
      "type": "function"
    },
    {
      "inputs": [
        {
          "internalType": "uint256",
          "name": "count",
          "type": "uint256"
        }
      ],
      "name": "test",
      "outputs": [],
      "stateMutability": "nonpayable",
      "type": "function"
    },
    {
      "inputs": [
        {
          "internalType": "uint256",
          "name": "tokenId",
          "type": "uint256"
        }
      ],
      "name": "tokenURI",
      "outputs": [
        {
          "internalType": "string",
          "name": "",
          "type": "string"
        }
      ],
      "stateMutability": "view",
      "type": "function"
    },
    {
      "inputs": [
        {
          "internalType": "address",
          "name": "from",
          "type": "address"
        },
        {
          "internalType": "address",
          "name": "to",
          "type": "address"
        },
        {
          "internalType": "uint256",
          "name": "tokenId",
          "type": "uint256"
        }
      ],
      "name": "transferFrom",
      "outputs": [],
      "stateMutability": "nonpayable",
      "type": "function"
    }
  ],
  "transactionHash": "0x58f7281cf673310c421719bd3e6ab048975d97df71b2aa99d2fa531571005e0f",
  "args": [
    "test",
    "TEST",
    "0x5086d1eEF304eb5284A0f6720f79403b4e9bE294",
    "0xBDEb8A291367a213f7BBE4b1F8B22631D704c2c3",
    "100000000"
  ],
  "numDeployments": 4,
  "solcInputHash": "0d83b83aea71ab31e2e86b78d5c84bf9",
  "bytecode": "0x6080604052600060065560646009553480156200001b57600080fd5b506040516200342b3803806200342b833981810160405281019062000041919062000428565b848481600090805190602001906200005b92919062000138565b5080600190805190602001906200007492919062000138565b50505082600860006101000a81548173ffffffffffffffffffffffffffffffffffffffff021916908373ffffffffffffffffffffffffffffffffffffffff16021790555081600760006101000a81548173ffffffffffffffffffffffffffffffffffffffff021916908373ffffffffffffffffffffffffffffffffffffffff16021790555080600a60006101000a8154816bffffffffffffffffffffffff0219169083600b0b6bffffffffffffffffffffffff160217905550505050505062000552565b82805462000146906200051d565b90600052602060002090601f0160209004810192826200016a5760008555620001b6565b82601f106200018557805160ff1916838001178555620001b6565b82800160010185558215620001b6579182015b82811115620001b557825182559160200191906001019062000198565b5b509050620001c59190620001c9565b5090565b5b80821115620001e4576000816000905550600101620001ca565b5090565b6000604051905090565b600080fd5b600080fd5b600080fd5b600080fd5b6000601f19601f8301169050919050565b7f4e487b7100000000000000000000000000000000000000000000000000000000600052604160045260246000fd5b620002518262000206565b810181811067ffffffffffffffff8211171562000273576200027262000217565b5b80604052505050565b600062000288620001e8565b905062000296828262000246565b919050565b600067ffffffffffffffff821115620002b957620002b862000217565b5b620002c48262000206565b9050602081019050919050565b60005b83811015620002f1578082015181840152602081019050620002d4565b8381111562000301576000848401525b50505050565b60006200031e62000318846200029b565b6200027c565b9050828152602081018484840111156200033d576200033c62000201565b5b6200034a848285620002d1565b509392505050565b600082601f8301126200036a5762000369620001fc565b5b81516200037c84826020860162000307565b91505092915050565b600073ffffffffffffffffffffffffffffffffffffffff82169050919050565b6000620003b28262000385565b9050919050565b620003c481620003a5565b8114620003d057600080fd5b50565b600081519050620003e481620003b9565b92915050565b600081600b0b9050919050565b6200040281620003ea565b81146200040e57600080fd5b50565b6000815190506200042281620003f7565b92915050565b600080600080600060a08688031215620004475762000446620001f2565b5b600086015167ffffffffffffffff811115620004685762000467620001f7565b5b620004768882890162000352565b955050602086015167ffffffffffffffff8111156200049a5762000499620001f7565b5b620004a88882890162000352565b9450506040620004bb88828901620003d3565b9350506060620004ce88828901620003d3565b9250506080620004e18882890162000411565b9150509295509295909350565b7f4e487b7100000000000000000000000000000000000000000000000000000000600052602260045260246000fd5b600060028204905060018216806200053657607f821691505b6020821081036200054c576200054b620004ee565b5b50919050565b612ec980620005626000396000f3fe608060405234801561001057600080fd5b50600436106101215760003560e01c806370a08231116100ad578063b88d4fde11610071578063b88d4fde14610308578063c87b56dd14610324578063d1194e2b14610354578063e985e9c514610370578063f0292a03146103a057610121565b806370a08231146102625780638d32238f1461029257806395d89b41146102b05780639659867e146102ce578063a22cb465146102ec57610121565b806323b872dd116100f457806323b872dd146101c057806329e99f07146101dc5780632c4e722e146101f857806342842e0e146102165780636352211e1461023257610121565b806301ffc9a71461012657806306fdde0314610156578063081812fc14610174578063095ea7b3146101a4575b600080fd5b610140600480360381019061013b9190611c28565b6103be565b60405161014d9190611c70565b60405180910390f35b61015e6104a0565b60405161016b9190611d24565b60405180910390f35b61018e60048036038101906101899190611d7c565b610532565b60405161019b9190611dea565b60405180910390f35b6101be60048036038101906101b99190611e31565b610578565b005b6101da60048036038101906101d59190611e71565b61068f565b005b6101f660048036038101906101f19190611d7c565b6106ef565b005b610200610835565b60405161020d9190611ee0565b60405180910390f35b610230600480360381019061022b9190611e71565b610848565b005b61024c60048036038101906102479190611d7c565b610868565b6040516102599190611dea565b60405180910390f35b61027c60048036038101906102779190611efb565b610919565b6040516102899190611f37565b60405180910390f35b61029a6109d0565b6040516102a79190611dea565b60405180910390f35b6102b86109f6565b6040516102c59190611d24565b60405180910390f35b6102d6610a88565b6040516102e39190611f37565b60405180910390f35b61030660048036038101906103019190611f7e565b610a8e565b005b610322600480360381019061031d91906120f3565b610aa4565b005b61033e60048036038101906103399190611d7c565b610b06565b60405161034b9190611d24565b60405180910390f35b61036e60048036038101906103699190611e31565b610b6e565b005b61038a60048036038101906103859190612176565b610db9565b6040516103979190611c70565b60405180910390f35b6103a8610e4d565b6040516103b59190611f37565b60405180910390f35b60007f80ac58cd000000000000000000000000000000000000000000000000000000007bffffffffffffffffffffffffffffffffffffffffffffffffffffffff1916827bffffffffffffffffffffffffffffffffffffffffffffffffffffffff1916148061048957507f5b5e139f000000000000000000000000000000000000000000000000000000007bffffffffffffffffffffffffffffffffffffffffffffffffffffffff1916827bffffffffffffffffffffffffffffffffffffffffffffffffffffffff1916145b80610499575061049882610e53565b5b9050919050565b6060600080546104af906121e5565b80601f01602080910402602001604051908101604052809291908181526020018280546104db906121e5565b80156105285780601f106104fd57610100808354040283529160200191610528565b820191906000526020600020905b81548152906001019060200180831161050b57829003601f168201915b5050505050905090565b600061053d82610ebd565b6004600083815260200190815260200160002060009054906101000a900473ffffffffffffffffffffffffffffffffffffffff169050919050565b600061058382610868565b90508073ffffffffffffffffffffffffffffffffffffffff168373ffffffffffffffffffffffffffffffffffffffff16036105f3576040517f08c379a00000000000000000000000000000000000000000000000000000000081526004016105ea90612288565b60405180910390fd5b8073ffffffffffffffffffffffffffffffffffffffff16610612610f08565b73ffffffffffffffffffffffffffffffffffffffff16148061064157506106408161063b610f08565b610db9565b5b610680576040517f08c379a00000000000000000000000000000000000000000000000000000000081526004016106779061231a565b60405180910390fd5b61068a8383610f10565b505050565b6106a061069a610f08565b82610fc9565b6106df576040517f08c379a00000000000000000000000000000000000000000000000000000000081526004016106d6906123ac565b60405180910390fd5b6106ea83838361105e565b505050565b600860009054906101000a900473ffffffffffffffffffffffffffffffffffffffff1673ffffffffffffffffffffffffffffffffffffffff16633dbb202b600760009054906101000a900473ffffffffffffffffffffffffffffffffffffffff16836040516024016107619190611f37565b6040516020818303038152906040527fe8dd6d04000000000000000000000000000000000000000000000000000000007bffffffffffffffffffffffffffffffffffffffffffffffffffffffff19166020820180517bffffffffffffffffffffffffffffffffffffffffffffffffffffffff8381831617835250505050629896806040518463ffffffff1660e01b815260040161080093929190612476565b600060405180830381600087803b15801561081a57600080fd5b505af115801561082e573d6000803e3d6000fd5b5050505050565b600a60009054906101000a9004600b0b81565b61086383838360405180602001604052806000815250610aa4565b505050565b6000806002600084815260200190815260200160002060009054906101000a900473ffffffffffffffffffffffffffffffffffffffff169050600073ffffffffffffffffffffffffffffffffffffffff168173ffffffffffffffffffffffffffffffffffffffff1603610910576040517f08c379a000000000000000000000000000000000000000000000000000000000815260040161090790612500565b60405180910390fd5b80915050919050565b60008073ffffffffffffffffffffffffffffffffffffffff168273ffffffffffffffffffffffffffffffffffffffff1603610989576040517f08c379a000000000000000000000000000000000000000000000000000000000815260040161098090612592565b60405180910390fd5b600360008373ffffffffffffffffffffffffffffffffffffffff1673ffffffffffffffffffffffffffffffffffffffff168152602001908152602001600020549050919050565b600760009054906101000a900473ffffffffffffffffffffffffffffffffffffffff1681565b606060018054610a05906121e5565b80601f0160208091040260200160405190810160405280929190818152602001828054610a31906121e5565b8015610a7e5780601f10610a5357610100808354040283529160200191610a7e565b820191906000526020600020905b815481529060010190602001808311610a6157829003601f168201915b5050505050905090565b60065481565b610aa0610a99610f08565b83836112c4565b5050565b610ab5610aaf610f08565b83610fc9565b610af4576040517f08c379a0000000000000000000000000000000000000000000000000000000008152600401610aeb906123ac565b60405180910390fd5b610b0084848484611430565b50505050565b6060610b1182610ebd565b6000610b1b61148c565b90506000815111610b3b5760405180602001604052806000815250610b66565b80610b45846114a3565b604051602001610b569291906125ee565b6040516020818303038152906040525b915050919050565b60095481600654610b7f9190612641565b1115610bc0576040517f08c379a0000000000000000000000000000000000000000000000000000000008152600401610bb7906126e3565b60405180910390fd5b6000600954620f424083610bd49190612703565b610bde919061278c565b90506000620f424082600a60009054906101000a9004600b0b600b0b610c0491906127c7565b610c0e91906128de565b905060005b83811015610d9957600860009054906101000a900473ffffffffffffffffffffffffffffffffffffffff1673ffffffffffffffffffffffffffffffffffffffff16633dbb202b600760009054906101000a900473ffffffffffffffffffffffffffffffffffffffff16878585600654610c8c9190612641565b604051602401610c9e93929190612948565b6040516020818303038152906040527f06fa0220000000000000000000000000000000000000000000000000000000007bffffffffffffffffffffffffffffffffffffffffffffffffffffffff19166020820180517bffffffffffffffffffffffffffffffffffffffffffffffffffffffff8381831617835250505050629896806040518463ffffffff1660e01b8152600401610d3d93929190612476565b600060405180830381600087803b158015610d5757600080fd5b505af1158015610d6b573d6000803e3d6000fd5b50505050610d868582600654610d819190612641565b611603565b8080610d919061297f565b915050610c13565b508260066000828254610dac9190612641565b9250508190555050505050565b6000600560008473ffffffffffffffffffffffffffffffffffffffff1673ffffffffffffffffffffffffffffffffffffffff16815260200190815260200160002060008373ffffffffffffffffffffffffffffffffffffffff1673ffffffffffffffffffffffffffffffffffffffff16815260200190815260200160002060009054906101000a900460ff16905092915050565b60095481565b60007f01ffc9a7000000000000000000000000000000000000000000000000000000007bffffffffffffffffffffffffffffffffffffffffffffffffffffffff1916827bffffffffffffffffffffffffffffffffffffffffffffffffffffffff1916149050919050565b610ec681611621565b610f05576040517f08c379a0000000000000000000000000000000000000000000000000000000008152600401610efc90612500565b60405180910390fd5b50565b600033905090565b816004600083815260200190815260200160002060006101000a81548173ffffffffffffffffffffffffffffffffffffffff021916908373ffffffffffffffffffffffffffffffffffffffff160217905550808273ffffffffffffffffffffffffffffffffffffffff16610f8383610868565b73ffffffffffffffffffffffffffffffffffffffff167f8c5be1e5ebec7d5bd14f71427d1e84f3dd0314c0f7b2291e5b200ac8c7c3b92560405160405180910390a45050565b600080610fd583610868565b90508073ffffffffffffffffffffffffffffffffffffffff168473ffffffffffffffffffffffffffffffffffffffff16148061101757506110168185610db9565b5b8061105557508373ffffffffffffffffffffffffffffffffffffffff1661103d84610532565b73ffffffffffffffffffffffffffffffffffffffff16145b91505092915050565b8273ffffffffffffffffffffffffffffffffffffffff1661107e82610868565b73ffffffffffffffffffffffffffffffffffffffff16146110d4576040517f08c379a00000000000000000000000000000000000000000000000000000000081526004016110cb90612a39565b60405180910390fd5b600073ffffffffffffffffffffffffffffffffffffffff168273ffffffffffffffffffffffffffffffffffffffff1603611143576040517f08c379a000000000000000000000000000000000000000000000000000000000815260040161113a90612acb565b60405180910390fd5b61114e83838361168d565b611159600082610f10565b6001600360008573ffffffffffffffffffffffffffffffffffffffff1673ffffffffffffffffffffffffffffffffffffffff16815260200190815260200160002060008282546111a99190612aeb565b925050819055506001600360008473ffffffffffffffffffffffffffffffffffffffff1673ffffffffffffffffffffffffffffffffffffffff16815260200190815260200160002060008282546112009190612641565b92505081905550816002600083815260200190815260200160002060006101000a81548173ffffffffffffffffffffffffffffffffffffffff021916908373ffffffffffffffffffffffffffffffffffffffff160217905550808273ffffffffffffffffffffffffffffffffffffffff168473ffffffffffffffffffffffffffffffffffffffff167fddf252ad1be2c89b69c2b068fc378daa952ba7f163c4a11628f55a4df523b3ef60405160405180910390a46112bf8383836117d9565b505050565b8173ffffffffffffffffffffffffffffffffffffffff168373ffffffffffffffffffffffffffffffffffffffff1603611332576040517f08c379a000000000000000000000000000000000000000000000000000000000815260040161132990612b6b565b60405180910390fd5b80600560008573ffffffffffffffffffffffffffffffffffffffff1673ffffffffffffffffffffffffffffffffffffffff16815260200190815260200160002060008473ffffffffffffffffffffffffffffffffffffffff1673ffffffffffffffffffffffffffffffffffffffff16815260200190815260200160002060006101000a81548160ff0219169083151502179055508173ffffffffffffffffffffffffffffffffffffffff168373ffffffffffffffffffffffffffffffffffffffff167f17307eab39ab6107e8899845ad3d59bd9653f200f220920489ca2b5937696c31836040516114239190611c70565b60405180910390a3505050565b61143b84848461105e565b611447848484846117de565b611486576040517f08c379a000000000000000000000000000000000000000000000000000000000815260040161147d90612bfd565b60405180910390fd5b50505050565b606060405180602001604052806000815250905090565b6060600082036114ea576040518060400160405280600181526020017f300000000000000000000000000000000000000000000000000000000000000081525090506115fe565b600082905060005b6000821461151c5780806115059061297f565b915050600a82611515919061278c565b91506114f2565b60008167ffffffffffffffff81111561153857611537611fc8565b5b6040519080825280601f01601f19166020018201604052801561156a5781602001600182028036833780820191505090505b5090505b600085146115f7576001826115839190612aeb565b9150600a856115929190612c1d565b603061159e9190612641565b60f81b8183815181106115b4576115b3612c4e565b5b60200101907effffffffffffffffffffffffffffffffffffffffffffffffffffffffffffff1916908160001a905350600a856115f0919061278c565b945061156e565b8093505050505b919050565b61161d828260405180602001604052806000815250611965565b5050565b60008073ffffffffffffffffffffffffffffffffffffffff166002600084815260200190815260200160002060009054906101000a900473ffffffffffffffffffffffffffffffffffffffff1673ffffffffffffffffffffffffffffffffffffffff1614159050919050565b600860009054906101000a900473ffffffffffffffffffffffffffffffffffffffff1673ffffffffffffffffffffffffffffffffffffffff16633dbb202b600760009054906101000a900473ffffffffffffffffffffffffffffffffffffffff1685858560405160240161170393929190612c7d565b6040516020818303038152906040527f4ab84771000000000000000000000000000000000000000000000000000000007bffffffffffffffffffffffffffffffffffffffffffffffffffffffff19166020820180517bffffffffffffffffffffffffffffffffffffffffffffffffffffffff8381831617835250505050629896816040518463ffffffff1660e01b81526004016117a293929190612cef565b600060405180830381600087803b1580156117bc57600080fd5b505af11580156117d0573d6000803e3d6000fd5b50505050505050565b505050565b60006117ff8473ffffffffffffffffffffffffffffffffffffffff166119c0565b15611958578373ffffffffffffffffffffffffffffffffffffffff1663150b7a02611828610f08565b8786866040518563ffffffff1660e01b815260040161184a9493929190612d2d565b6020604051808303816000875af192505050801561188657506040513d601f19601f820116820180604052508101906118839190612d8e565b60015b611908573d80600081146118b6576040519150601f19603f3d011682016040523d82523d6000602084013e6118bb565b606091505b506000815103611900576040517f08c379a00000000000000000000000000000000000000000000000000000000081526004016118f790612bfd565b60405180910390fd5b805181602001fd5b63150b7a0260e01b7bffffffffffffffffffffffffffffffffffffffffffffffffffffffff1916817bffffffffffffffffffffffffffffffffffffffffffffffffffffffff19161491505061195d565b600190505b949350505050565b61196f83836119e3565b61197c60008484846117de565b6119bb576040517f08c379a00000000000000000000000000000000000000000000000000000000081526004016119b290612bfd565b60405180910390fd5b505050565b6000808273ffffffffffffffffffffffffffffffffffffffff163b119050919050565b600073ffffffffffffffffffffffffffffffffffffffff168273ffffffffffffffffffffffffffffffffffffffff1603611a52576040517f08c379a0000000000000000000000000000000000000000000000000000000008152600401611a4990612e07565b60405180910390fd5b611a5b81611621565b15611a9b576040517f08c379a0000000000000000000000000000000000000000000000000000000008152600401611a9290612e73565b60405180910390fd5b611aa76000838361168d565b6001600360008473ffffffffffffffffffffffffffffffffffffffff1673ffffffffffffffffffffffffffffffffffffffff1681526020019081526020016000206000828254611af79190612641565b92505081905550816002600083815260200190815260200160002060006101000a81548173ffffffffffffffffffffffffffffffffffffffff021916908373ffffffffffffffffffffffffffffffffffffffff160217905550808273ffffffffffffffffffffffffffffffffffffffff16600073ffffffffffffffffffffffffffffffffffffffff167fddf252ad1be2c89b69c2b068fc378daa952ba7f163c4a11628f55a4df523b3ef60405160405180910390a4611bb8600083836117d9565b5050565b6000604051905090565b600080fd5b600080fd5b60007fffffffff0000000000000000000000000000000000000000000000000000000082169050919050565b611c0581611bd0565b8114611c1057600080fd5b50565b600081359050611c2281611bfc565b92915050565b600060208284031215611c3e57611c3d611bc6565b5b6000611c4c84828501611c13565b91505092915050565b60008115159050919050565b611c6a81611c55565b82525050565b6000602082019050611c856000830184611c61565b92915050565b600081519050919050565b600082825260208201905092915050565b60005b83811015611cc5578082015181840152602081019050611caa565b83811115611cd4576000848401525b50505050565b6000601f19601f8301169050919050565b6000611cf682611c8b565b611d008185611c96565b9350611d10818560208601611ca7565b611d1981611cda565b840191505092915050565b60006020820190508181036000830152611d3e8184611ceb565b905092915050565b6000819050919050565b611d5981611d46565b8114611d6457600080fd5b50565b600081359050611d7681611d50565b92915050565b600060208284031215611d9257611d91611bc6565b5b6000611da084828501611d67565b91505092915050565b600073ffffffffffffffffffffffffffffffffffffffff82169050919050565b6000611dd482611da9565b9050919050565b611de481611dc9565b82525050565b6000602082019050611dff6000830184611ddb565b92915050565b611e0e81611dc9565b8114611e1957600080fd5b50565b600081359050611e2b81611e05565b92915050565b60008060408385031215611e4857611e47611bc6565b5b6000611e5685828601611e1c565b9250506020611e6785828601611d67565b9150509250929050565b600080600060608486031215611e8a57611e89611bc6565b5b6000611e9886828701611e1c565b9350506020611ea986828701611e1c565b9250506040611eba86828701611d67565b9150509250925092565b600081600b0b9050919050565b611eda81611ec4565b82525050565b6000602082019050611ef56000830184611ed1565b92915050565b600060208284031215611f1157611f10611bc6565b5b6000611f1f84828501611e1c565b91505092915050565b611f3181611d46565b82525050565b6000602082019050611f4c6000830184611f28565b92915050565b611f5b81611c55565b8114611f6657600080fd5b50565b600081359050611f7881611f52565b92915050565b60008060408385031215611f9557611f94611bc6565b5b6000611fa385828601611e1c565b9250506020611fb485828601611f69565b9150509250929050565b600080fd5b600080fd5b7f4e487b7100000000000000000000000000000000000000000000000000000000600052604160045260246000fd5b61200082611cda565b810181811067ffffffffffffffff8211171561201f5761201e611fc8565b5b80604052505050565b6000612032611bbc565b905061203e8282611ff7565b919050565b600067ffffffffffffffff82111561205e5761205d611fc8565b5b61206782611cda565b9050602081019050919050565b82818337600083830152505050565b600061209661209184612043565b612028565b9050828152602081018484840111156120b2576120b1611fc3565b5b6120bd848285612074565b509392505050565b600082601f8301126120da576120d9611fbe565b5b81356120ea848260208601612083565b91505092915050565b6000806000806080858703121561210d5761210c611bc6565b5b600061211b87828801611e1c565b945050602061212c87828801611e1c565b935050604061213d87828801611d67565b925050606085013567ffffffffffffffff81111561215e5761215d611bcb565b5b61216a878288016120c5565b91505092959194509250565b6000806040838503121561218d5761218c611bc6565b5b600061219b85828601611e1c565b92505060206121ac85828601611e1c565b9150509250929050565b7f4e487b7100000000000000000000000000000000000000000000000000000000600052602260045260246000fd5b600060028204905060018216806121fd57607f821691505b6020821081036122105761220f6121b6565b5b50919050565b7f4552433732313a20617070726f76616c20746f2063757272656e74206f776e6560008201527f7200000000000000000000000000000000000000000000000000000000000000602082015250565b6000612272602183611c96565b915061227d82612216565b604082019050919050565b600060208201905081810360008301526122a181612265565b9050919050565b7f4552433732313a20617070726f76652063616c6c6572206973206e6f7420746f60008201527f6b656e206f776e6572206e6f7220617070726f76656420666f7220616c6c0000602082015250565b6000612304603e83611c96565b915061230f826122a8565b604082019050919050565b60006020820190508181036000830152612333816122f7565b9050919050565b7f4552433732313a2063616c6c6572206973206e6f7420746f6b656e206f776e6560008201527f72206e6f7220617070726f766564000000000000000000000000000000000000602082015250565b6000612396602e83611c96565b91506123a18261233a565b604082019050919050565b600060208201905081810360008301526123c581612389565b9050919050565b600081519050919050565b600082825260208201905092915050565b60006123f3826123cc565b6123fd81856123d7565b935061240d818560208601611ca7565b61241681611cda565b840191505092915050565b6000819050919050565b600063ffffffff82169050919050565b6000819050919050565b600061246061245b61245684612421565b61243b565b61242b565b9050919050565b61247081612445565b82525050565b600060608201905061248b6000830186611ddb565b818103602083015261249d81856123e8565b90506124ac6040830184612467565b949350505050565b7f4552433732313a20696e76616c696420746f6b656e2049440000000000000000600082015250565b60006124ea601883611c96565b91506124f5826124b4565b602082019050919050565b60006020820190508181036000830152612519816124dd565b9050919050565b7f4552433732313a2061646472657373207a65726f206973206e6f74206120766160008201527f6c6964206f776e65720000000000000000000000000000000000000000000000602082015250565b600061257c602983611c96565b915061258782612520565b604082019050919050565b600060208201905081810360008301526125ab8161256f565b9050919050565b600081905092915050565b60006125c882611c8b565b6125d281856125b2565b93506125e2818560208601611ca7565b80840191505092915050565b60006125fa82856125bd565b915061260682846125bd565b91508190509392505050565b7f4e487b7100000000000000000000000000000000000000000000000000000000600052601160045260246000fd5b600061264c82611d46565b915061265783611d46565b9250827fffffffffffffffffffffffffffffffffffffffffffffffffffffffffffffffff0382111561268c5761268b612612565b5b828201905092915050565b7f6e6f7420656e6f7567687420746f206d696e7400000000000000000000000000600082015250565b60006126cd601383611c96565b91506126d882612697565b602082019050919050565b600060208201905081810360008301526126fc816126c0565b9050919050565b600061270e82611d46565b915061271983611d46565b9250817fffffffffffffffffffffffffffffffffffffffffffffffffffffffffffffffff048311821515161561275257612751612612565b5b828202905092915050565b7f4e487b7100000000000000000000000000000000000000000000000000000000600052601260045260246000fd5b600061279782611d46565b91506127a283611d46565b9250826127b2576127b161275d565b5b828204905092915050565b6000819050919050565b60006127d2826127bd565b91506127dd836127bd565b9250827f7fffffffffffffffffffffffffffffffffffffffffffffffffffffffffffffff048211600084136000841316161561281c5761281b612612565b5b817f8000000000000000000000000000000000000000000000000000000000000000058312600084126000841316161561285957612858612612565b5b827f8000000000000000000000000000000000000000000000000000000000000000058212600084136000841216161561289657612895612612565b5b827f7fffffffffffffffffffffffffffffffffffffffffffffffffffffffffffffff05821260008412600084121616156128d3576128d2612612565b5b828202905092915050565b60006128e9826127bd565b91506128f4836127bd565b9250826129045761290361275d565b5b600160000383147f80000000000000000000000000000000000000000000000000000000000000008314161561293d5761293c612612565b5b828205905092915050565b600060608201905061295d6000830186611ddb565b61296a6020830185611ed1565b6129776040830184611f28565b949350505050565b600061298a82611d46565b91507fffffffffffffffffffffffffffffffffffffffffffffffffffffffffffffffff82036129bc576129bb612612565b5b600182019050919050565b7f4552433732313a207472616e736665722066726f6d20696e636f72726563742060008201527f6f776e6572000000000000000000000000000000000000000000000000000000602082015250565b6000612a23602583611c96565b9150612a2e826129c7565b604082019050919050565b60006020820190508181036000830152612a5281612a16565b9050919050565b7f4552433732313a207472616e7366657220746f20746865207a65726f2061646460008201527f7265737300000000000000000000000000000000000000000000000000000000602082015250565b6000612ab5602483611c96565b9150612ac082612a59565b604082019050919050565b60006020820190508181036000830152612ae481612aa8565b9050919050565b6000612af682611d46565b9150612b0183611d46565b925082821015612b1457612b13612612565b5b828203905092915050565b7f4552433732313a20617070726f766520746f2063616c6c657200000000000000600082015250565b6000612b55601983611c96565b9150612b6082612b1f565b602082019050919050565b60006020820190508181036000830152612b8481612b48565b9050919050565b7f4552433732313a207472616e7366657220746f206e6f6e20455243373231526560008201527f63656976657220696d706c656d656e7465720000000000000000000000000000602082015250565b6000612be7603283611c96565b9150612bf282612b8b565b604082019050919050565b60006020820190508181036000830152612c1681612bda565b9050919050565b6000612c2882611d46565b9150612c3383611d46565b925082612c4357612c4261275d565b5b828206905092915050565b7f4e487b7100000000000000000000000000000000000000000000000000000000600052603260045260246000fd5b6000606082019050612c926000830186611ddb565b612c9f6020830185611ddb565b612cac6040830184611f28565b949350505050565b6000819050919050565b6000612cd9612cd4612ccf84612cb4565b61243b565b61242b565b9050919050565b612ce981612cbe565b82525050565b6000606082019050612d046000830186611ddb565b8181036020830152612d1681856123e8565b9050612d256040830184612ce0565b949350505050565b6000608082019050612d426000830187611ddb565b612d4f6020830186611ddb565b612d5c6040830185611f28565b8181036060830152612d6e81846123e8565b905095945050505050565b600081519050612d8881611bfc565b92915050565b600060208284031215612da457612da3611bc6565b5b6000612db284828501612d79565b91505092915050565b7f4552433732313a206d696e7420746f20746865207a65726f2061646472657373600082015250565b6000612df1602083611c96565b9150612dfc82612dbb565b602082019050919050565b60006020820190508181036000830152612e2081612de4565b9050919050565b7f4552433732313a20746f6b656e20616c7265616479206d696e74656400000000600082015250565b6000612e5d601c83611c96565b9150612e6882612e27565b602082019050919050565b60006020820190508181036000830152612e8c81612e50565b905091905056fea264697066735822122077cabb9f023b66ae9483e23328202f02bb4a115d20afecf47d9943e49692ace964736f6c634300080e0033",
  "devdoc": {
    "kind": "dev",
    "methods": {
      "approve(address,uint256)": {
        "details": "See {IERC721-approve}."
      },
      "balanceOf(address)": {
        "details": "See {IERC721-balanceOf}."
      },
      "getApproved(uint256)": {
        "details": "See {IERC721-getApproved}."
      },
      "isApprovedForAll(address,address)": {
        "details": "See {IERC721-isApprovedForAll}."
      },
      "name()": {
        "details": "See {IERC721Metadata-name}."
      },
      "ownerOf(uint256)": {
        "details": "See {IERC721-ownerOf}."
      },
      "safeTransferFrom(address,address,uint256)": {
        "details": "See {IERC721-safeTransferFrom}."
      },
      "safeTransferFrom(address,address,uint256,bytes)": {
        "details": "See {IERC721-safeTransferFrom}."
      },
      "setApprovalForAll(address,bool)": {
        "details": "See {IERC721-setApprovalForAll}."
      },
      "supportsInterface(bytes4)": {
        "details": "See {IERC165-supportsInterface}."
      },
      "symbol()": {
        "details": "See {IERC721Metadata-symbol}."
      },
      "tokenURI(uint256)": {
        "details": "See {IERC721Metadata-tokenURI}."
      },
      "transferFrom(address,address,uint256)": {
        "details": "See {IERC721-transferFrom}."
      }
    },
    "version": 1
  },
  "userdoc": {
    "kind": "user",
    "methods": {},
    "version": 1
  },
  "storageLayout": {
    "storage": [
      {
        "astId": 4717,
        "contract": "contracts/MyNFT.sol:MyNFT",
        "label": "_name",
        "offset": 0,
        "slot": "0",
        "type": "t_string_storage"
      },
      {
        "astId": 4719,
        "contract": "contracts/MyNFT.sol:MyNFT",
        "label": "_symbol",
        "offset": 0,
        "slot": "1",
        "type": "t_string_storage"
      },
      {
        "astId": 4723,
        "contract": "contracts/MyNFT.sol:MyNFT",
        "label": "_owners",
        "offset": 0,
        "slot": "2",
        "type": "t_mapping(t_uint256,t_address)"
      },
      {
        "astId": 4727,
        "contract": "contracts/MyNFT.sol:MyNFT",
        "label": "_balances",
        "offset": 0,
        "slot": "3",
        "type": "t_mapping(t_address,t_uint256)"
      },
      {
        "astId": 4731,
        "contract": "contracts/MyNFT.sol:MyNFT",
        "label": "_tokenApprovals",
        "offset": 0,
        "slot": "4",
        "type": "t_mapping(t_uint256,t_address)"
      },
      {
        "astId": 4737,
        "contract": "contracts/MyNFT.sol:MyNFT",
        "label": "_operatorApprovals",
        "offset": 0,
        "slot": "5",
        "type": "t_mapping(t_address,t_mapping(t_address,t_bool))"
      },
      {
        "astId": 10761,
        "contract": "contracts/MyNFT.sol:MyNFT",
        "label": "mintCount",
        "offset": 0,
        "slot": "6",
        "type": "t_uint256"
      },
      {
        "astId": 10763,
        "contract": "contracts/MyNFT.sol:MyNFT",
        "label": "cashflowContract",
        "offset": 0,
        "slot": "7",
        "type": "t_address"
      },
      {
        "astId": 10766,
        "contract": "contracts/MyNFT.sol:MyNFT",
        "label": "messenger",
        "offset": 0,
        "slot": "8",
        "type": "t_contract(IL1CrossDomainMessenger)53"
      },
      {
        "astId": 10769,
        "contract": "contracts/MyNFT.sol:MyNFT",
        "label": "MAX_MINT",
        "offset": 0,
        "slot": "9",
        "type": "t_uint256"
      },
      {
        "astId": 10771,
        "contract": "contracts/MyNFT.sol:MyNFT",
        "label": "rate",
        "offset": 0,
        "slot": "10",
        "type": "t_int96"
      }
    ],
    "types": {
      "t_address": {
        "encoding": "inplace",
        "label": "address",
        "numberOfBytes": "20"
      },
      "t_bool": {
        "encoding": "inplace",
        "label": "bool",
        "numberOfBytes": "1"
      },
      "t_contract(IL1CrossDomainMessenger)53": {
        "encoding": "inplace",
        "label": "contract IL1CrossDomainMessenger",
        "numberOfBytes": "20"
      },
      "t_int96": {
        "encoding": "inplace",
        "label": "int96",
        "numberOfBytes": "12"
      },
      "t_mapping(t_address,t_bool)": {
        "encoding": "mapping",
        "key": "t_address",
        "label": "mapping(address => bool)",
        "numberOfBytes": "32",
        "value": "t_bool"
      },
      "t_mapping(t_address,t_mapping(t_address,t_bool))": {
        "encoding": "mapping",
        "key": "t_address",
        "label": "mapping(address => mapping(address => bool))",
        "numberOfBytes": "32",
        "value": "t_mapping(t_address,t_bool)"
      },
      "t_mapping(t_address,t_uint256)": {
        "encoding": "mapping",
        "key": "t_address",
        "label": "mapping(address => uint256)",
        "numberOfBytes": "32",
        "value": "t_uint256"
      },
      "t_mapping(t_uint256,t_address)": {
        "encoding": "mapping",
        "key": "t_uint256",
        "label": "mapping(uint256 => address)",
        "numberOfBytes": "32",
        "value": "t_address"
      },
      "t_string_storage": {
        "encoding": "bytes",
        "label": "string",
        "numberOfBytes": "32"
      },
      "t_uint256": {
        "encoding": "inplace",
        "label": "uint256",
        "numberOfBytes": "32"
      }
    }
  }
}