{
  "address": "0xBDEb8A291367a213f7BBE4b1F8B22631D704c2c3",
  "abi": [
    {
      "inputs": [
        {
          "internalType": "contract ISuperfluid",
          "name": "host",
          "type": "address"
        },
        {
          "internalType": "contract ISuperToken",
          "name": "_acceptedToken",
          "type": "address"
        }
      ],
      "stateMutability": "nonpayable",
      "type": "constructor"
    },
    {
      "inputs": [
        {
          "internalType": "contract ISuperToken",
          "name": "",
          "type": "address"
        },
        {
          "internalType": "address",
          "name": "",
          "type": "address"
        },
        {
          "internalType": "bytes32",
          "name": "",
          "type": "bytes32"
        },
        {
          "internalType": "bytes",
          "name": "",
          "type": "bytes"
        },
        {
          "internalType": "bytes",
          "name": "",
          "type": "bytes"
        },
        {
          "internalType": "bytes",
          "name": "",
          "type": "bytes"
        }
      ],
      "name": "afterAgreementCreated",
      "outputs": [
        {
          "internalType": "bytes",
          "name": "",
          "type": "bytes"
        }
      ],
      "stateMutability": "nonpayable",
      "type": "function"
    },
    {
      "inputs": [
        {
          "internalType": "contract ISuperToken",
          "name": "",
          "type": "address"
        },
        {
          "internalType": "address",
          "name": "",
          "type": "address"
        },
        {
          "internalType": "bytes32",
          "name": "",
          "type": "bytes32"
        },
        {
          "internalType": "bytes",
          "name": "",
          "type": "bytes"
        },
        {
          "internalType": "bytes",
          "name": "",
          "type": "bytes"
        },
        {
          "internalType": "bytes",
          "name": "",
          "type": "bytes"
        }
      ],
      "name": "afterAgreementTerminated",
      "outputs": [
        {
          "internalType": "bytes",
          "name": "",
          "type": "bytes"
        }
      ],
      "stateMutability": "nonpayable",
      "type": "function"
    },
    {
      "inputs": [
        {
          "internalType": "contract ISuperToken",
          "name": "",
          "type": "address"
        },
        {
          "internalType": "address",
          "name": "",
          "type": "address"
        },
        {
          "internalType": "bytes32",
          "name": "",
          "type": "bytes32"
        },
        {
          "internalType": "bytes",
          "name": "",
          "type": "bytes"
        },
        {
          "internalType": "bytes",
          "name": "",
          "type": "bytes"
        },
        {
          "internalType": "bytes",
          "name": "",
          "type": "bytes"
        }
      ],
      "name": "afterAgreementUpdated",
      "outputs": [
        {
          "internalType": "bytes",
          "name": "",
          "type": "bytes"
        }
      ],
      "stateMutability": "nonpayable",
      "type": "function"
    },
    {
      "inputs": [
        {
          "internalType": "contract ISuperToken",
          "name": "",
          "type": "address"
        },
        {
          "internalType": "address",
          "name": "",
          "type": "address"
        },
        {
          "internalType": "bytes32",
          "name": "",
          "type": "bytes32"
        },
        {
          "internalType": "bytes",
          "name": "",
          "type": "bytes"
        },
        {
          "internalType": "bytes",
          "name": "",
          "type": "bytes"
        }
      ],
      "name": "beforeAgreementCreated",
      "outputs": [
        {
          "internalType": "bytes",
          "name": "",
          "type": "bytes"
        }
      ],
      "stateMutability": "view",
      "type": "function"
    },
    {
      "inputs": [
        {
          "internalType": "contract ISuperToken",
          "name": "",
          "type": "address"
        },
        {
          "internalType": "address",
          "name": "",
          "type": "address"
        },
        {
          "internalType": "bytes32",
          "name": "",
          "type": "bytes32"
        },
        {
          "internalType": "bytes",
          "name": "",
          "type": "bytes"
        },
        {
          "internalType": "bytes",
          "name": "",
          "type": "bytes"
        }
      ],
      "name": "beforeAgreementTerminated",
      "outputs": [
        {
          "internalType": "bytes",
          "name": "",
          "type": "bytes"
        }
      ],
      "stateMutability": "view",
      "type": "function"
    },
    {
      "inputs": [
        {
          "internalType": "contract ISuperToken",
          "name": "",
          "type": "address"
        },
        {
          "internalType": "address",
          "name": "",
          "type": "address"
        },
        {
          "internalType": "bytes32",
          "name": "",
          "type": "bytes32"
        },
        {
          "internalType": "bytes",
          "name": "",
          "type": "bytes"
        },
        {
          "internalType": "bytes",
          "name": "",
          "type": "bytes"
        }
      ],
      "name": "beforeAgreementUpdated",
      "outputs": [
        {
          "internalType": "bytes",
          "name": "",
          "type": "bytes"
        }
      ],
      "stateMutability": "view",
      "type": "function"
    },
    {
      "inputs": [],
      "name": "cfaV1Lib",
      "outputs": [
        {
          "internalType": "contract ISuperfluid",
          "name": "host",
          "type": "address"
        },
        {
          "internalType": "contract IConstantFlowAgreementV1",
          "name": "cfa",
          "type": "address"
        }
      ],
      "stateMutability": "view",
      "type": "function"
    },
    {
      "inputs": [],
      "name": "countBaby",
      "outputs": [
        {
          "internalType": "uint256",
          "name": "",
          "type": "uint256"
        }
      ],
      "stateMutability": "view",
      "type": "function"
    },
    {
      "inputs": [
        {
          "internalType": "uint256",
          "name": "tokenId",
          "type": "uint256"
        },
        {
          "internalType": "int96",
          "name": "flowRate",
          "type": "int96"
        },
        {
          "internalType": "address",
          "name": "receiver",
          "type": "address"
        }
      ],
      "name": "editNFT",
      "outputs": [],
      "stateMutability": "nonpayable",
      "type": "function"
    },
    {
      "inputs": [
        {
          "internalType": "uint256",
          "name": "",
          "type": "uint256"
        }
      ],
      "name": "flowRates",
      "outputs": [
        {
          "internalType": "int96",
          "name": "",
          "type": "int96"
        }
      ],
      "stateMutability": "view",
      "type": "function"
    },
    {
      "inputs": [
        {
          "internalType": "address",
          "name": "_receiver",
          "type": "address"
        }
      ],
      "name": "getFlow",
      "outputs": [
        {
          "internalType": "uint256",
          "name": "timestamp",
          "type": "uint256"
        },
        {
          "internalType": "int96",
          "name": "flowRate",
          "type": "int96"
        },
        {
          "internalType": "uint256",
          "name": "deposit",
          "type": "uint256"
        },
        {
          "internalType": "uint256",
          "name": "owedDeposit",
          "type": "uint256"
        }
      ],
      "stateMutability": "view",
      "type": "function"
    },
    {
      "inputs": [
        {
          "internalType": "address",
          "name": "receiver",
          "type": "address"
        },
        {
          "internalType": "int96",
          "name": "flowRate",
          "type": "int96"
        },
        {
          "internalType": "uint256",
          "name": "tokenId",
          "type": "uint256"
        }
      ],
      "name": "issueNFT",
      "outputs": [],
      "stateMutability": "nonpayable",
      "type": "function"
    },
    {
      "inputs": [
        {
          "internalType": "uint256",
          "name": "count",
          "type": "uint256"
        }
      ],
      "name": "testItBaby",
      "outputs": [],
      "stateMutability": "nonpayable",
      "type": "function"
    },
    {
      "inputs": [
        {
          "internalType": "address",
          "name": "oldReceiver",
          "type": "address"
        },
        {
          "internalType": "address",
          "name": "newReceiver",
          "type": "address"
        },
        {
          "internalType": "uint256",
          "name": "tokenId",
          "type": "uint256"
        }
      ],
      "name": "updateHolder",
      "outputs": [],
      "stateMutability": "nonpayable",
      "type": "function"
    }
  ],
  "transactionHash": "0xe17d3822c12483a642cc3ff3b9d6f6d7ca30a2679fc117d3df4b8aa4eff0bceb",
  "args": [
    "0xE40983C2476032A0915600b9472B3141aA5B5Ba9",
    "0xaC7A5cf2E0A6DB31456572871Ee33eb6212014a9"
  ],
  "numDeployments": 4,
  "solcInputHash": "0d83b83aea71ab31e2e86b78d5c84bf9",
  "bytecode": "0x60a060405260006003553480156200001657600080fd5b506040516200269f3803806200269f83398181016040528101906200003c91906200032c565b600073ffffffffffffffffffffffffffffffffffffffff168273ffffffffffffffffffffffffffffffffffffffff16036200007c576200007b62000373565b5b600073ffffffffffffffffffffffffffffffffffffffff168173ffffffffffffffffffffffffffffffffffffffff1603620000bc57620000bb62000373565b5b8073ffffffffffffffffffffffffffffffffffffffff1660808173ffffffffffffffffffffffffffffffffffffffff168152505060405180604001604052808373ffffffffffffffffffffffffffffffffffffffff1681526020018373ffffffffffffffffffffffffffffffffffffffff1663b6d200de7fa9214cc96615e0085d3bb077758db69497dc2dce3b2b1e97bc93c3d18d83efd36040518263ffffffff1660e01b8152600401620001729190620003bd565b602060405180830381865afa15801562000190573d6000803e3d6000fd5b505050506040513d601f19601f82011682018060405250810190620001b691906200041f565b73ffffffffffffffffffffffffffffffffffffffff168152506000808201518160000160006101000a81548173ffffffffffffffffffffffffffffffffffffffff021916908373ffffffffffffffffffffffffffffffffffffffff16021790555060208201518160010160006101000a81548173ffffffffffffffffffffffffffffffffffffffff021916908373ffffffffffffffffffffffffffffffffffffffff160217905550905050505062000451565b600080fd5b600073ffffffffffffffffffffffffffffffffffffffff82169050919050565b60006200029b826200026e565b9050919050565b6000620002af826200028e565b9050919050565b620002c181620002a2565b8114620002cd57600080fd5b50565b600081519050620002e181620002b6565b92915050565b6000620002f4826200028e565b9050919050565b6200030681620002e7565b81146200031257600080fd5b50565b6000815190506200032681620002fb565b92915050565b6000806040838503121562000346576200034562000269565b5b60006200035685828601620002d0565b9250506020620003698582860162000315565b9150509250929050565b7f4e487b7100000000000000000000000000000000000000000000000000000000600052600160045260246000fd5b6000819050919050565b620003b781620003a2565b82525050565b6000602082019050620003d46000830184620003ac565b92915050565b6000620003e7826200028e565b9050919050565b620003f981620003da565b81146200040557600080fd5b50565b6000815190506200041981620003ee565b92915050565b60006020828403121562000438576200043762000269565b5b6000620004488482850162000408565b91505092915050565b6080516122086200049760003960008181610675015281816108c701528181610960015281816109aa01528181610a6801528181610afe0152610b3b01526122086000f3fe608060405234801561001057600080fd5b50600436106100ea5760003560e01c80637141ca4a1161008c57806395168382116100665780639516838214610282578063cb546850146102b5578063d86ed3e5146102d3578063e8dd6d0414610303576100ea565b80637141ca4a1461020657806379bcb8df14610222578063884d1f4014610252576100ea565b80634ab84771116100c85780634ab847711461016b57806353c11f991461018757806355586a31146101b75780635f9e7d77146101d6576100ea565b806306fa0220146100ef578063230dbd291461010b57806330d9c9151461013b575b600080fd5b610109600480360381019061010491906112ae565b61031f565b005b610125600480360381019061012091906113da565b61032f565b6040516101329190611562565b60405180910390f35b61015560048036038101906101509190611584565b61036c565b6040516101629190611562565b60405180910390f35b61018560048036038101906101809190611640565b6103a9565b005b6101a1600480360381019061019c91906113da565b610402565b6040516101ae9190611562565b60405180910390f35b6101bf61043f565b6040516101cd929190611713565b60405180910390f35b6101f060048036038101906101eb9190611584565b610491565b6040516101fd9190611562565b60405180910390f35b610220600480360381019061021b919061173c565b6104ce565b005b61023c6004803603810190610237919061178f565b6105cf565b60405161024991906117cb565b60405180910390f35b61026c60048036038101906102679190611584565b6105ef565b6040516102799190611562565b60405180910390f35b61029c600480360381019061029791906117e6565b61062c565b6040516102ac9493929190611822565b60405180910390f35b6102bd610704565b6040516102ca9190611867565b60405180910390f35b6102ed60048036038101906102e891906113da565b61070a565b6040516102fa9190611562565b60405180910390f35b61031d6004803603810190610318919061178f565b610747565b005b61032a838383610751565b505050565b60606040517f08c379a000000000000000000000000000000000000000000000000000000000815260040161036390611905565b60405180910390fd5b60606040517f08c379a00000000000000000000000000000000000000000000000000000000081526004016103a090611997565b60405180910390fd5b6103d3836002600084815260200190815260200160002060009054906101000a9004600b0b61084f565b6103fd826002600084815260200190815260200160002060009054906101000a9004600b0b6109ef565b505050565b60606040517f08c379a000000000000000000000000000000000000000000000000000000000815260040161043690611a29565b60405180910390fd5b60008060000160009054906101000a900473ffffffffffffffffffffffffffffffffffffffff16908060010160009054906101000a900473ffffffffffffffffffffffffffffffffffffffff16905082565b60606040517f08c379a00000000000000000000000000000000000000000000000000000000081526004016104c590611abb565b60405180910390fd5b600082600b0b1215610515576040517f08c379a000000000000000000000000000000000000000000000000000000000815260040161050c90611b27565b60405180910390fd5b600082600b0b0361054f5761054a816002600086815260200190815260200160002060009054906101000a9004600b0b61084f565b610585565b610584816002600086815260200190815260200160002060009054906101000a9004600b0b8461057f9190611b76565b6109ef565b5b816002600085815260200190815260200160002060006101000a8154816bffffffffffffffffffffffff0219169083600b0b6bffffffffffffffffffffffff160217905550505050565b60026020528060005260406000206000915054906101000a9004600b0b81565b60606040517f08c379a000000000000000000000000000000000000000000000000000000000815260040161062390611c68565b60405180910390fd5b600080600080600060010160009054906101000a900473ffffffffffffffffffffffffffffffffffffffff1673ffffffffffffffffffffffffffffffffffffffff1663e6a1e8887f000000000000000000000000000000000000000000000000000000000000000030886040518463ffffffff1660e01b81526004016106b493929190611cb8565b608060405180830381865afa1580156106d1573d6000803e3d6000fd5b505050506040513d601f19601f820116820180604052508101906106f59190611d19565b93509350935093509193509193565b60035481565b60606040517f08c379a000000000000000000000000000000000000000000000000000000000815260040161073e90611df2565b60405180910390fd5b8060038190555050565b3073ffffffffffffffffffffffffffffffffffffffff168373ffffffffffffffffffffffffffffffffffffffff16036107bf576040517f08c379a00000000000000000000000000000000000000000000000000000000081526004016107b690611e5e565b60405180910390fd5b600082600b0b13610805576040517f08c379a00000000000000000000000000000000000000000000000000000000081526004016107fc90611eca565b60405180910390fd5b816002600083815260200190815260200160002060006101000a8154816bffffffffffffffffffffffff0219169083600b0b6bffffffffffffffffffffffff160217905550505050565b3073ffffffffffffffffffffffffffffffffffffffff168273ffffffffffffffffffffffffffffffffffffffff1603156109eb5760008060010160009054906101000a900473ffffffffffffffffffffffffffffffffffffffff1673ffffffffffffffffffffffffffffffffffffffff1663e6a1e8887f000000000000000000000000000000000000000000000000000000000000000030866040518463ffffffff1660e01b815260040161090693929190611cb8565b608060405180830381865afa158015610923573d6000803e3d6000fd5b505050506040513d601f19601f820116820180604052508101906109479190611d19565b505091505081600b0b81600b0b036109965761099130847f00000000000000000000000000000000000000000000000000000000000000006000610b7f909392919063ffffffff16565b6109e9565b81600b0b81600b0b13156109e8576109e7837f000000000000000000000000000000000000000000000000000000000000000084846109d59190611b76565b6000610bdf909392919063ffffffff16565b5b5b505b5050565b600073ffffffffffffffffffffffffffffffffffffffff168273ffffffffffffffffffffffffffffffffffffffff160315610b7b5760008060010160009054906101000a900473ffffffffffffffffffffffffffffffffffffffff1673ffffffffffffffffffffffffffffffffffffffff1663e6a1e8887f000000000000000000000000000000000000000000000000000000000000000030866040518463ffffffff1660e01b8152600401610aa793929190611cb8565b608060405180830381865afa158015610ac4573d6000803e3d6000fd5b505050506040513d601f19601f82011682018060405250810190610ae89190611d19565b5050915050600081600b0b03610b3557610b30837f0000000000000000000000000000000000000000000000000000000000000000846000610c3f909392919063ffffffff16565b610b79565b610b78837f00000000000000000000000000000000000000000000000000000000000000008484610b669190611eea565b6000610bdf909392919063ffffffff16565b5b505b5050565b610bd984848484600067ffffffffffffffff811115610ba157610ba0611f6a565b5b6040519080825280601f01601f191660200182016040528015610bd35781602001600182028036833780820191505090505b50610c9f565b50505050565b610c3984848484600067ffffffffffffffff811115610c0157610c00611f6a565b5b6040519080825280601f01601f191660200182016040528015610c335781602001600182028036833780820191505090505b50610e59565b50505050565b610c9984848484600067ffffffffffffffff811115610c6157610c60611f6a565b5b6040519080825280601f01601f191660200182016040528015610c935781602001600182028036833780820191505090505b50611013565b50505050565b8460000160009054906101000a900473ffffffffffffffffffffffffffffffffffffffff1673ffffffffffffffffffffffffffffffffffffffff166339255d5b8660010160009054906101000a900473ffffffffffffffffffffffffffffffffffffffff168760010160009054906101000a900473ffffffffffffffffffffffffffffffffffffffff1673ffffffffffffffffffffffffffffffffffffffff1663b4b333c6868989600067ffffffffffffffff811115610d6257610d61611f6a565b5b6040519080825280601f01601f191660200182016040528015610d945781602001600182028036833780820191505090505b50604051602401610da89493929190611fba565b604051602081830303815290604052915060e01b6020820180517bffffffffffffffffffffffffffffffffffffffffffffffffffffffff8381831617835250505050846040518463ffffffff1660e01b8152600401610e0993929190612006565b6000604051808303816000875af1158015610e28573d6000803e3d6000fd5b505050506040513d6000823e3d601f19601f82011682018060405250810190610e51919061213d565b505050505050565b8460000160009054906101000a900473ffffffffffffffffffffffffffffffffffffffff1673ffffffffffffffffffffffffffffffffffffffff166339255d5b8660010160009054906101000a900473ffffffffffffffffffffffffffffffffffffffff168760010160009054906101000a900473ffffffffffffffffffffffffffffffffffffffff1673ffffffffffffffffffffffffffffffffffffffff166350209a62878988600067ffffffffffffffff811115610f1c57610f1b611f6a565b5b6040519080825280601f01601f191660200182016040528015610f4e5781602001600182028036833780820191505090505b50604051602401610f629493929190612186565b604051602081830303815290604052915060e01b6020820180517bffffffffffffffffffffffffffffffffffffffffffffffffffffffff8381831617835250505050846040518463ffffffff1660e01b8152600401610fc393929190612006565b6000604051808303816000875af1158015610fe2573d6000803e3d6000fd5b505050506040513d6000823e3d601f19601f8201168201806040525081019061100b919061213d565b505050505050565b8460000160009054906101000a900473ffffffffffffffffffffffffffffffffffffffff1673ffffffffffffffffffffffffffffffffffffffff166339255d5b8660010160009054906101000a900473ffffffffffffffffffffffffffffffffffffffff168760010160009054906101000a900473ffffffffffffffffffffffffffffffffffffffff1673ffffffffffffffffffffffffffffffffffffffff166362fc305e878988600067ffffffffffffffff8111156110d6576110d5611f6a565b5b6040519080825280601f01601f1916602001820160405280156111085781602001600182028036833780820191505090505b5060405160240161111c9493929190612186565b604051602081830303815290604052915060e01b6020820180517bffffffffffffffffffffffffffffffffffffffffffffffffffffffff8381831617835250505050846040518463ffffffff1660e01b815260040161117d93929190612006565b6000604051808303816000875af115801561119c573d6000803e3d6000fd5b505050506040513d6000823e3d601f19601f820116820180604052508101906111c5919061213d565b505050505050565b6000604051905090565b600080fd5b600080fd5b600073ffffffffffffffffffffffffffffffffffffffff82169050919050565b600061120c826111e1565b9050919050565b61121c81611201565b811461122757600080fd5b50565b60008135905061123981611213565b92915050565b600081600b0b9050919050565b6112558161123f565b811461126057600080fd5b50565b6000813590506112728161124c565b92915050565b6000819050919050565b61128b81611278565b811461129657600080fd5b50565b6000813590506112a881611282565b92915050565b6000806000606084860312156112c7576112c66111d7565b5b60006112d58682870161122a565b93505060206112e686828701611263565b92505060406112f786828701611299565b9150509250925092565b600061130c82611201565b9050919050565b61131c81611301565b811461132757600080fd5b50565b60008135905061133981611313565b92915050565b6000819050919050565b6113528161133f565b811461135d57600080fd5b50565b60008135905061136f81611349565b92915050565b600080fd5b600080fd5b600080fd5b60008083601f84011261139a57611399611375565b5b8235905067ffffffffffffffff8111156113b7576113b661137a565b5b6020830191508360018202830111156113d3576113d261137f565b5b9250929050565b600080600080600080600080600060c08a8c0312156113fc576113fb6111d7565b5b600061140a8c828d0161132a565b995050602061141b8c828d0161122a565b985050604061142c8c828d01611360565b97505060608a013567ffffffffffffffff81111561144d5761144c6111dc565b5b6114598c828d01611384565b965096505060808a013567ffffffffffffffff81111561147c5761147b6111dc565b5b6114888c828d01611384565b945094505060a08a013567ffffffffffffffff8111156114ab576114aa6111dc565b5b6114b78c828d01611384565b92509250509295985092959850929598565b600081519050919050565b600082825260208201905092915050565b60005b838110156115035780820151818401526020810190506114e8565b83811115611512576000848401525b50505050565b6000601f19601f8301169050919050565b6000611534826114c9565b61153e81856114d4565b935061154e8185602086016114e5565b61155781611518565b840191505092915050565b6000602082019050818103600083015261157c8184611529565b905092915050565b600080600080600080600060a0888a0312156115a3576115a26111d7565b5b60006115b18a828b0161132a565b97505060206115c28a828b0161122a565b96505060406115d38a828b01611360565b955050606088013567ffffffffffffffff8111156115f4576115f36111dc565b5b6116008a828b01611384565b9450945050608088013567ffffffffffffffff811115611623576116226111dc565b5b61162f8a828b01611384565b925092505092959891949750929550565b600080600060608486031215611659576116586111d7565b5b60006116678682870161122a565b93505060206116788682870161122a565b925050604061168986828701611299565b9150509250925092565b6000819050919050565b60006116b86116b36116ae846111e1565b611693565b6111e1565b9050919050565b60006116ca8261169d565b9050919050565b60006116dc826116bf565b9050919050565b6116ec816116d1565b82525050565b60006116fd826116bf565b9050919050565b61170d816116f2565b82525050565b600060408201905061172860008301856116e3565b6117356020830184611704565b9392505050565b600080600060608486031215611755576117546111d7565b5b600061176386828701611299565b935050602061177486828701611263565b92505060406117858682870161122a565b9150509250925092565b6000602082840312156117a5576117a46111d7565b5b60006117b384828501611299565b91505092915050565b6117c58161123f565b82525050565b60006020820190506117e060008301846117bc565b92915050565b6000602082840312156117fc576117fb6111d7565b5b600061180a8482850161122a565b91505092915050565b61181c81611278565b82525050565b60006080820190506118376000830187611813565b61184460208301866117bc565b6118516040830185611813565b61185e6060830184611813565b95945050505050565b600060208201905061187c6000830184611813565b92915050565b600082825260208201905092915050565b7f556e737570706f727465642063616c6c6261636b202d2041667465722041677260008201527f65656d656e742055706461746564000000000000000000000000000000000000602082015250565b60006118ef602e83611882565b91506118fa82611893565b604082019050919050565b6000602082019050818103600083015261191e816118e2565b9050919050565b7f556e737570706f727465642063616c6c6261636b202d204265666f726520416760008201527f7265656d656e7420437265617465640000000000000000000000000000000000602082015250565b6000611981602f83611882565b915061198c82611925565b604082019050919050565b600060208201905081810360008301526119b081611974565b9050919050565b7f556e737570706f727465642063616c6c6261636b202d2041667465722041677260008201527f65656d656e74205465726d696e61746564000000000000000000000000000000602082015250565b6000611a13603183611882565b9150611a1e826119b7565b604082019050919050565b60006020820190508181036000830152611a4281611a06565b9050919050565b7f556e737570706f727465642063616c6c6261636b202d20204265666f7265204160008201527f677265656d656e74205465726d696e6174656400000000000000000000000000602082015250565b6000611aa5603383611882565b9150611ab082611a49565b604082019050919050565b60006020820190508181036000830152611ad481611a98565b9050919050565b7f666c6f7752617465206d75737420626520706f73697469766521000000000000600082015250565b6000611b11601a83611882565b9150611b1c82611adb565b602082019050919050565b60006020820190508181036000830152611b4081611b04565b9050919050565b7f4e487b7100000000000000000000000000000000000000000000000000000000600052601160045260246000fd5b6000611b818261123f565b9150611b8c8361123f565b9250827fffffffffffffffffffffffffffffffffffffffff80000000000000000000000001821260008412151615611bc757611bc6611b47565b5b826b7fffffffffffffffffffffff018213600084121615611beb57611bea611b47565b5b828203905092915050565b7f556e737570706f727465642063616c6c6261636b202d204265666f726520416760008201527f7265656d656e7420757064617465640000000000000000000000000000000000602082015250565b6000611c52602f83611882565b9150611c5d82611bf6565b604082019050919050565b60006020820190508181036000830152611c8181611c45565b9050919050565b6000611c93826116bf565b9050919050565b611ca381611c88565b82525050565b611cb281611201565b82525050565b6000606082019050611ccd6000830186611c9a565b611cda6020830185611ca9565b611ce76040830184611ca9565b949350505050565b600081519050611cfe81611282565b92915050565b600081519050611d138161124c565b92915050565b60008060008060808587031215611d3357611d326111d7565b5b6000611d4187828801611cef565b9450506020611d5287828801611d04565b9350506040611d6387828801611cef565b9250506060611d7487828801611cef565b91505092959194509250565b7f556e737570706f727465642063616c6c6261636b202d2041667465722041677260008201527f65656d656e742043726561746564000000000000000000000000000000000000602082015250565b6000611ddc602e83611882565b9150611de782611d80565b604082019050919050565b60006020820190508181036000830152611e0b81611dcf565b9050919050565b7f497373756520746f2061206e6577206164647265737300000000000000000000600082015250565b6000611e48601683611882565b9150611e5382611e12565b602082019050919050565b60006020820190508181036000830152611e7781611e3b565b9050919050565b7f666c6f775261746565206d75737420626520706f736974697665210000000000600082015250565b6000611eb4601b83611882565b9150611ebf82611e7e565b602082019050919050565b60006020820190508181036000830152611ee381611ea7565b9050919050565b6000611ef58261123f565b9150611f008361123f565b9250816b7fffffffffffffffffffffff03831360008312151615611f2757611f26611b47565b5b817fffffffffffffffffffffffffffffffffffffffff800000000000000000000000038312600083121615611f5f57611f5e611b47565b5b828201905092915050565b7f4e487b7100000000000000000000000000000000000000000000000000000000600052604160045260246000fd5b6000611fa4826116bf565b9050919050565b611fb481611f99565b82525050565b6000608082019050611fcf6000830187611fab565b611fdc6020830186611ca9565b611fe96040830185611ca9565b8181036060830152611ffb8184611529565b905095945050505050565b600060608201905061201b6000830186611704565b818103602083015261202d8185611529565b905081810360408301526120418184611529565b9050949350505050565b600080fd5b61205982611518565b810181811067ffffffffffffffff8211171561207857612077611f6a565b5b80604052505050565b600061208b6111cd565b90506120978282612050565b919050565b600067ffffffffffffffff8211156120b7576120b6611f6a565b5b6120c082611518565b9050602081019050919050565b60006120e06120db8461209c565b612081565b9050828152602081018484840111156120fc576120fb61204b565b5b6121078482856114e5565b509392505050565b600082601f83011261212457612123611375565b5b81516121348482602086016120cd565b91505092915050565b600060208284031215612153576121526111d7565b5b600082015167ffffffffffffffff811115612171576121706111dc565b5b61217d8482850161210f565b91505092915050565b600060808201905061219b6000830187611fab565b6121a86020830186611ca9565b6121b560408301856117bc565b81810360608301526121c78184611529565b90509594505050505056fea26469706673582212201d69801ec707da4b9d8c2a9dc367b5e076480556cf2c64d2ffa3058ee51beb2864736f6c634300080e0033",
  "devdoc": {
    "kind": "dev",
    "methods": {},
    "stateVariables": {
      "acceptedToken": {
        "details": "Super token that may be streamed to this contract"
      }
    },
    "version": 1
  },
  "userdoc": {
    "kind": "user",
    "methods": {},
    "version": 1
  },
  "storageLayout": {
    "storage": [
      {
        "astId": 10373,
        "contract": "contracts/Cashflow.sol:Cashflow",
        "label": "cfaV1Lib",
        "offset": 0,
        "slot": "0",
        "type": "t_struct(InitData)6476_storage"
      },
      {
        "astId": 10381,
        "contract": "contracts/Cashflow.sol:Cashflow",
        "label": "flowRates",
        "offset": 0,
        "slot": "2",
        "type": "t_mapping(t_uint256,t_int96)"
      },
      {
        "astId": 10684,
        "contract": "contracts/Cashflow.sol:Cashflow",
        "label": "countBaby",
        "offset": 0,
        "slot": "3",
        "type": "t_uint256"
      }
    ],
    "types": {
      "t_contract(IConstantFlowAgreementV1)8159": {
        "encoding": "inplace",
        "label": "contract IConstantFlowAgreementV1",
        "numberOfBytes": "20"
      },
      "t_contract(ISuperfluid)9889": {
        "encoding": "inplace",
        "label": "contract ISuperfluid",
        "numberOfBytes": "20"
      },
      "t_int96": {
        "encoding": "inplace",
        "label": "int96",
        "numberOfBytes": "12"
      },
      "t_mapping(t_uint256,t_int96)": {
        "encoding": "mapping",
        "key": "t_uint256",
        "label": "mapping(uint256 => int96)",
        "numberOfBytes": "32",
        "value": "t_int96"
      },
      "t_struct(InitData)6476_storage": {
        "encoding": "inplace",
        "label": "struct CFAv1Library.InitData",
        "members": [
          {
            "astId": 6472,
            "contract": "contracts/Cashflow.sol:Cashflow",
            "label": "host",
            "offset": 0,
            "slot": "0",
            "type": "t_contract(ISuperfluid)9889"
          },
          {
            "astId": 6475,
            "contract": "contracts/Cashflow.sol:Cashflow",
            "label": "cfa",
            "offset": 0,
            "slot": "1",
            "type": "t_contract(IConstantFlowAgreementV1)8159"
          }
        ],
        "numberOfBytes": "64"
      },
      "t_uint256": {
        "encoding": "inplace",
        "label": "uint256",
        "numberOfBytes": "32"
      }
    }
  }
}